{
  "_format": "hh-sol-artifact-1",
  "contractName": "PurgeToken",
  "sourceName": "contracts/PurgeToken.sol",
  "abi": [
    {
      "inputs": [
        {
          "internalType": "address",
          "name": "_lzEndpoint",
          "type": "address"
        }
      ],
      "stateMutability": "nonpayable",
      "type": "constructor"
    },
    {
      "inputs": [
        {
          "internalType": "address",
          "name": "target",
          "type": "address"
        }
      ],
      "name": "AddressEmptyCode",
      "type": "error"
    },
    {
      "inputs": [
        {
          "internalType": "uint256",
          "name": "amountSD",
          "type": "uint256"
        }
      ],
      "name": "AmountSDOverflowed",
      "type": "error"
    },
    {
      "inputs": [
        {
          "internalType": "address",
          "name": "implementation",
          "type": "address"
        }
      ],
      "name": "ERC1967InvalidImplementation",
      "type": "error"
    },
    {
      "inputs": [],
      "name": "ERC1967NonPayable",
      "type": "error"
    },
    {
      "inputs": [
        {
          "internalType": "address",
          "name": "spender",
          "type": "address"
        },
        {
          "internalType": "uint256",
          "name": "allowance",
          "type": "uint256"
        },
        {
          "internalType": "uint256",
          "name": "needed",
          "type": "uint256"
        }
      ],
      "name": "ERC20InsufficientAllowance",
      "type": "error"
    },
    {
      "inputs": [
        {
          "internalType": "address",
          "name": "sender",
          "type": "address"
        },
        {
          "internalType": "uint256",
          "name": "balance",
          "type": "uint256"
        },
        {
          "internalType": "uint256",
          "name": "needed",
          "type": "uint256"
        }
      ],
      "name": "ERC20InsufficientBalance",
      "type": "error"
    },
    {
      "inputs": [
        {
          "internalType": "address",
          "name": "approver",
          "type": "address"
        }
      ],
      "name": "ERC20InvalidApprover",
      "type": "error"
    },
    {
      "inputs": [
        {
          "internalType": "address",
          "name": "receiver",
          "type": "address"
        }
      ],
      "name": "ERC20InvalidReceiver",
      "type": "error"
    },
    {
      "inputs": [
        {
          "internalType": "address",
          "name": "sender",
          "type": "address"
        }
      ],
      "name": "ERC20InvalidSender",
      "type": "error"
    },
    {
      "inputs": [
        {
          "internalType": "address",
          "name": "spender",
          "type": "address"
        }
      ],
      "name": "ERC20InvalidSpender",
      "type": "error"
    },
    {
      "inputs": [],
      "name": "FailedCall",
      "type": "error"
    },
    {
      "inputs": [],
      "name": "InvalidDelegate",
      "type": "error"
    },
    {
      "inputs": [],
      "name": "InvalidEndpointCall",
      "type": "error"
    },
    {
      "inputs": [],
      "name": "InvalidInitialization",
      "type": "error"
    },
    {
      "inputs": [],
      "name": "InvalidLocalDecimals",
      "type": "error"
    },
    {
      "inputs": [
        {
          "internalType": "bytes",
          "name": "options",
          "type": "bytes"
        }
      ],
      "name": "InvalidOptions",
      "type": "error"
    },
    {
      "inputs": [],
      "name": "LzTokenUnavailable",
      "type": "error"
    },
    {
      "inputs": [
        {
          "internalType": "uint32",
          "name": "eid",
          "type": "uint32"
        }
      ],
      "name": "NoPeer",
      "type": "error"
    },
    {
      "inputs": [
        {
          "internalType": "uint256",
          "name": "msgValue",
          "type": "uint256"
        }
      ],
      "name": "NotEnoughNative",
      "type": "error"
    },
    {
      "inputs": [],
      "name": "NotInitializing",
      "type": "error"
    },
    {
      "inputs": [
        {
          "internalType": "address",
          "name": "addr",
          "type": "address"
        }
      ],
      "name": "OnlyEndpoint",
      "type": "error"
    },
    {
      "inputs": [
        {
          "internalType": "uint32",
          "name": "eid",
          "type": "uint32"
        },
        {
          "internalType": "bytes32",
          "name": "sender",
          "type": "bytes32"
        }
      ],
      "name": "OnlyPeer",
      "type": "error"
    },
    {
      "inputs": [],
      "name": "OnlySelf",
      "type": "error"
    },
    {
      "inputs": [
        {
          "internalType": "address",
          "name": "owner",
          "type": "address"
        }
      ],
      "name": "OwnableInvalidOwner",
      "type": "error"
    },
    {
      "inputs": [
        {
          "internalType": "address",
          "name": "account",
          "type": "address"
        }
      ],
      "name": "OwnableUnauthorizedAccount",
      "type": "error"
    },
    {
      "inputs": [
        {
          "internalType": "address",
          "name": "token",
          "type": "address"
        }
      ],
      "name": "SafeERC20FailedOperation",
      "type": "error"
    },
    {
      "inputs": [
        {
          "internalType": "bytes",
          "name": "result",
          "type": "bytes"
        }
      ],
      "name": "SimulationResult",
      "type": "error"
    },
    {
      "inputs": [
        {
          "internalType": "uint256",
          "name": "amountLD",
          "type": "uint256"
        },
        {
          "internalType": "uint256",
          "name": "minAmountLD",
          "type": "uint256"
        }
      ],
      "name": "SlippageExceeded",
      "type": "error"
    },
    {
      "inputs": [],
      "name": "UUPSUnauthorizedCallContext",
      "type": "error"
    },
    {
      "inputs": [
        {
          "internalType": "bytes32",
          "name": "slot",
          "type": "bytes32"
        }
      ],
      "name": "UUPSUnsupportedProxiableUUID",
      "type": "error"
    },
    {
      "anonymous": false,
      "inputs": [
        {
          "indexed": true,
          "internalType": "address",
          "name": "owner",
          "type": "address"
        },
        {
          "indexed": true,
          "internalType": "address",
          "name": "spender",
          "type": "address"
        },
        {
          "indexed": false,
          "internalType": "uint256",
          "name": "value",
          "type": "uint256"
        }
      ],
      "name": "Approval",
      "type": "event"
    },
    {
      "anonymous": false,
      "inputs": [
        {
          "indexed": true,
          "internalType": "address",
          "name": "to",
          "type": "address"
        },
        {
          "indexed": false,
          "internalType": "uint256",
          "name": "amount",
          "type": "uint256"
        }
      ],
      "name": "DividendWithdrawn",
      "type": "event"
    },
    {
      "anonymous": false,
      "inputs": [
        {
          "indexed": true,
          "internalType": "address",
          "name": "from",
          "type": "address"
        },
        {
          "indexed": false,
          "internalType": "uint256",
          "name": "amount",
          "type": "uint256"
        }
      ],
      "name": "DividendsDistributed",
      "type": "event"
    },
    {
      "anonymous": false,
      "inputs": [
        {
          "components": [
            {
              "internalType": "uint32",
              "name": "eid",
              "type": "uint32"
            },
            {
              "internalType": "uint16",
              "name": "msgType",
              "type": "uint16"
            },
            {
              "internalType": "bytes",
              "name": "options",
              "type": "bytes"
            }
          ],
          "indexed": false,
          "internalType": "struct EnforcedOptionParam[]",
          "name": "_enforcedOptions",
          "type": "tuple[]"
        }
      ],
      "name": "EnforcedOptionSet",
      "type": "event"
    },
    {
      "anonymous": false,
      "inputs": [],
      "name": "GatesOpened",
      "type": "event"
    },
    {
      "anonymous": false,
      "inputs": [
        {
          "indexed": false,
          "internalType": "uint64",
          "name": "version",
          "type": "uint64"
        }
      ],
      "name": "Initialized",
      "type": "event"
    },
    {
      "anonymous": false,
      "inputs": [
        {
          "indexed": false,
          "internalType": "address",
          "name": "inspector",
          "type": "address"
        }
      ],
      "name": "MsgInspectorSet",
      "type": "event"
    },
    {
      "anonymous": false,
      "inputs": [
        {
          "indexed": true,
          "internalType": "bytes32",
          "name": "guid",
          "type": "bytes32"
        },
        {
          "indexed": false,
          "internalType": "uint32",
          "name": "srcEid",
          "type": "uint32"
        },
        {
          "indexed": true,
          "internalType": "address",
          "name": "toAddress",
          "type": "address"
        },
        {
          "indexed": false,
          "internalType": "uint256",
          "name": "amountReceivedLD",
          "type": "uint256"
        }
      ],
      "name": "OFTReceived",
      "type": "event"
    },
    {
      "anonymous": false,
      "inputs": [
        {
          "indexed": true,
          "internalType": "bytes32",
          "name": "guid",
          "type": "bytes32"
        },
        {
          "indexed": false,
          "internalType": "uint32",
          "name": "dstEid",
          "type": "uint32"
        },
        {
          "indexed": true,
          "internalType": "address",
          "name": "fromAddress",
          "type": "address"
        },
        {
          "indexed": false,
          "internalType": "uint256",
          "name": "amountSentLD",
          "type": "uint256"
        },
        {
          "indexed": false,
          "internalType": "uint256",
          "name": "amountReceivedLD",
          "type": "uint256"
        }
      ],
      "name": "OFTSent",
      "type": "event"
    },
    {
      "anonymous": false,
      "inputs": [
        {
          "indexed": true,
          "internalType": "address",
          "name": "previousOwner",
          "type": "address"
        },
        {
          "indexed": true,
          "internalType": "address",
          "name": "newOwner",
          "type": "address"
        }
      ],
      "name": "OwnershipTransferred",
      "type": "event"
    },
    {
      "anonymous": false,
      "inputs": [
        {
          "indexed": false,
          "internalType": "uint32",
          "name": "eid",
          "type": "uint32"
        },
        {
          "indexed": false,
          "internalType": "bytes32",
          "name": "peer",
          "type": "bytes32"
        }
      ],
      "name": "PeerSet",
      "type": "event"
    },
    {
      "anonymous": false,
      "inputs": [
        {
          "indexed": false,
          "internalType": "address",
          "name": "preCrimeAddress",
          "type": "address"
        }
      ],
      "name": "PreCrimeSet",
      "type": "event"
    },
    {
      "anonymous": false,
      "inputs": [
        {
          "indexed": true,
          "internalType": "address",
          "name": "from",
          "type": "address"
        },
        {
          "indexed": true,
          "internalType": "address",
          "name": "to",
          "type": "address"
        },
        {
          "indexed": false,
          "internalType": "uint256",
          "name": "value",
          "type": "uint256"
        }
      ],
      "name": "Transfer",
      "type": "event"
    },
    {
      "anonymous": false,
      "inputs": [
        {
          "indexed": true,
          "internalType": "address",
          "name": "implementation",
          "type": "address"
        }
      ],
      "name": "Upgraded",
      "type": "event"
    },
    {
      "inputs": [],
      "name": "SEND",
      "outputs": [
        {
          "internalType": "uint16",
          "name": "",
          "type": "uint16"
        }
      ],
      "stateMutability": "view",
      "type": "function"
    },
    {
      "inputs": [],
      "name": "SEND_AND_CALL",
      "outputs": [
        {
          "internalType": "uint16",
          "name": "",
          "type": "uint16"
        }
      ],
      "stateMutability": "view",
      "type": "function"
    },
    {
      "inputs": [],
      "name": "UPGRADE_INTERFACE_VERSION",
      "outputs": [
        {
          "internalType": "string",
          "name": "",
          "type": "string"
        }
      ],
      "stateMutability": "view",
      "type": "function"
    },
    {
      "inputs": [
        {
          "internalType": "address",
          "name": "_owner",
          "type": "address"
        }
      ],
      "name": "accumulativeDividendOf",
      "outputs": [
        {
          "internalType": "uint256",
          "name": "",
          "type": "uint256"
        }
      ],
      "stateMutability": "view",
      "type": "function"
    },
    {
      "inputs": [
        {
          "components": [
            {
              "internalType": "uint32",
              "name": "srcEid",
              "type": "uint32"
            },
            {
              "internalType": "bytes32",
              "name": "sender",
              "type": "bytes32"
            },
            {
              "internalType": "uint64",
              "name": "nonce",
              "type": "uint64"
            }
          ],
          "internalType": "struct Origin",
          "name": "origin",
          "type": "tuple"
        }
      ],
      "name": "allowInitializePath",
      "outputs": [
        {
          "internalType": "bool",
          "name": "",
          "type": "bool"
        }
      ],
      "stateMutability": "view",
      "type": "function"
    },
    {
      "inputs": [
        {
          "internalType": "address",
          "name": "owner",
          "type": "address"
        },
        {
          "internalType": "address",
          "name": "spender",
          "type": "address"
        }
      ],
      "name": "allowance",
      "outputs": [
        {
          "internalType": "uint256",
          "name": "",
          "type": "uint256"
        }
      ],
      "stateMutability": "view",
      "type": "function"
    },
    {
      "inputs": [],
      "name": "approvalRequired",
      "outputs": [
        {
          "internalType": "bool",
          "name": "",
          "type": "bool"
        }
      ],
      "stateMutability": "pure",
      "type": "function"
    },
    {
      "inputs": [
        {
          "internalType": "address",
          "name": "spender",
          "type": "address"
        },
        {
          "internalType": "uint256",
          "name": "value",
          "type": "uint256"
        }
      ],
      "name": "approve",
      "outputs": [
        {
          "internalType": "bool",
          "name": "",
          "type": "bool"
        }
      ],
      "stateMutability": "nonpayable",
      "type": "function"
    },
    {
      "inputs": [
        {
          "internalType": "address",
          "name": "account",
          "type": "address"
        }
      ],
      "name": "balanceOf",
      "outputs": [
        {
          "internalType": "uint256",
          "name": "",
          "type": "uint256"
        }
      ],
      "stateMutability": "view",
      "type": "function"
    },
    {
      "inputs": [],
      "name": "claimReward",
      "outputs": [],
      "stateMutability": "nonpayable",
      "type": "function"
    },
    {
      "inputs": [
        {
          "internalType": "uint32",
          "name": "_eid",
          "type": "uint32"
        },
        {
          "internalType": "uint16",
          "name": "_msgType",
          "type": "uint16"
        },
        {
          "internalType": "bytes",
          "name": "_extraOptions",
          "type": "bytes"
        }
      ],
      "name": "combineOptions",
      "outputs": [
        {
          "internalType": "bytes",
          "name": "",
          "type": "bytes"
        }
      ],
      "stateMutability": "view",
      "type": "function"
    },
    {
      "inputs": [],
      "name": "decimalConversionRate",
      "outputs": [
        {
          "internalType": "uint256",
          "name": "",
          "type": "uint256"
        }
      ],
      "stateMutability": "view",
      "type": "function"
    },
    {
      "inputs": [],
      "name": "decimals",
      "outputs": [
        {
          "internalType": "uint8",
          "name": "",
          "type": "uint8"
        }
      ],
      "stateMutability": "view",
      "type": "function"
    },
    {
      "inputs": [
        {
          "internalType": "uint256",
          "name": "_amount",
          "type": "uint256"
        }
      ],
      "name": "distributeDividends",
      "outputs": [],
      "stateMutability": "nonpayable",
      "type": "function"
    },
    {
      "inputs": [
        {
          "internalType": "address",
          "name": "_owner",
          "type": "address"
        }
      ],
      "name": "dividendOf",
      "outputs": [
        {
          "internalType": "uint256",
          "name": "",
          "type": "uint256"
        }
      ],
      "stateMutability": "view",
      "type": "function"
    },
    {
      "inputs": [],
      "name": "endpoint",
      "outputs": [
        {
          "internalType": "contract ILayerZeroEndpointV2",
          "name": "",
          "type": "address"
        }
      ],
      "stateMutability": "view",
      "type": "function"
    },
    {
      "inputs": [
        {
          "internalType": "uint32",
          "name": "_eid",
          "type": "uint32"
        },
        {
          "internalType": "uint16",
          "name": "_msgType",
          "type": "uint16"
        }
      ],
      "name": "enforcedOptions",
      "outputs": [
        {
          "internalType": "bytes",
          "name": "",
          "type": "bytes"
        }
      ],
      "stateMutability": "view",
      "type": "function"
    },
    {
      "inputs": [
        {
          "internalType": "string",
          "name": "_name",
          "type": "string"
        },
        {
          "internalType": "string",
          "name": "_symbol",
          "type": "string"
        },
        {
          "internalType": "address",
          "name": "_delegate",
          "type": "address"
        }
      ],
      "name": "initialize",
      "outputs": [],
      "stateMutability": "nonpayable",
      "type": "function"
    },
    {
      "inputs": [
        {
          "components": [
            {
              "internalType": "uint32",
              "name": "srcEid",
              "type": "uint32"
            },
            {
              "internalType": "bytes32",
              "name": "sender",
              "type": "bytes32"
            },
            {
              "internalType": "uint64",
              "name": "nonce",
              "type": "uint64"
            }
          ],
          "internalType": "struct Origin",
          "name": "",
          "type": "tuple"
        },
        {
          "internalType": "bytes",
          "name": "",
          "type": "bytes"
        },
        {
          "internalType": "address",
          "name": "_sender",
          "type": "address"
        }
      ],
      "name": "isComposeMsgSender",
      "outputs": [
        {
          "internalType": "bool",
          "name": "",
          "type": "bool"
        }
      ],
      "stateMutability": "view",
      "type": "function"
    },
    {
      "inputs": [
        {
          "internalType": "address",
          "name": "",
          "type": "address"
        }
      ],
      "name": "isExcludedFromTrading",
      "outputs": [
        {
          "internalType": "bool",
          "name": "",
          "type": "bool"
        }
      ],
      "stateMutability": "view",
      "type": "function"
    },
    {
      "inputs": [
        {
          "internalType": "uint32",
          "name": "_eid",
          "type": "uint32"
        },
        {
          "internalType": "bytes32",
          "name": "_peer",
          "type": "bytes32"
        }
      ],
      "name": "isPeer",
      "outputs": [
        {
          "internalType": "bool",
          "name": "",
          "type": "bool"
        }
      ],
      "stateMutability": "view",
      "type": "function"
    },
    {
      "inputs": [
        {
          "internalType": "address",
          "name": "",
          "type": "address"
        }
      ],
      "name": "lastActionBlock",
      "outputs": [
        {
          "internalType": "uint256",
          "name": "",
          "type": "uint256"
        }
      ],
      "stateMutability": "view",
      "type": "function"
    },
    {
      "inputs": [
        {
          "components": [
            {
              "internalType": "uint32",
              "name": "srcEid",
              "type": "uint32"
            },
            {
              "internalType": "bytes32",
              "name": "sender",
              "type": "bytes32"
            },
            {
              "internalType": "uint64",
              "name": "nonce",
              "type": "uint64"
            }
          ],
          "internalType": "struct Origin",
          "name": "_origin",
          "type": "tuple"
        },
        {
          "internalType": "bytes32",
          "name": "_guid",
          "type": "bytes32"
        },
        {
          "internalType": "bytes",
          "name": "_message",
          "type": "bytes"
        },
        {
          "internalType": "address",
          "name": "_executor",
          "type": "address"
        },
        {
          "internalType": "bytes",
          "name": "_extraData",
          "type": "bytes"
        }
      ],
      "name": "lzReceive",
      "outputs": [],
      "stateMutability": "payable",
      "type": "function"
    },
    {
      "inputs": [
        {
          "components": [
            {
              "components": [
                {
                  "internalType": "uint32",
                  "name": "srcEid",
                  "type": "uint32"
                },
                {
                  "internalType": "bytes32",
                  "name": "sender",
                  "type": "bytes32"
                },
                {
                  "internalType": "uint64",
                  "name": "nonce",
                  "type": "uint64"
                }
              ],
              "internalType": "struct Origin",
              "name": "origin",
              "type": "tuple"
            },
            {
              "internalType": "uint32",
              "name": "dstEid",
              "type": "uint32"
            },
            {
              "internalType": "address",
              "name": "receiver",
              "type": "address"
            },
            {
              "internalType": "bytes32",
              "name": "guid",
              "type": "bytes32"
            },
            {
              "internalType": "uint256",
              "name": "value",
              "type": "uint256"
            },
            {
              "internalType": "address",
              "name": "executor",
              "type": "address"
            },
            {
              "internalType": "bytes",
              "name": "message",
              "type": "bytes"
            },
            {
              "internalType": "bytes",
              "name": "extraData",
              "type": "bytes"
            }
          ],
          "internalType": "struct InboundPacket[]",
          "name": "_packets",
          "type": "tuple[]"
        }
      ],
      "name": "lzReceiveAndRevert",
      "outputs": [],
      "stateMutability": "payable",
      "type": "function"
    },
    {
      "inputs": [
        {
          "components": [
            {
              "internalType": "uint32",
              "name": "srcEid",
              "type": "uint32"
            },
            {
              "internalType": "bytes32",
              "name": "sender",
              "type": "bytes32"
            },
            {
              "internalType": "uint64",
              "name": "nonce",
              "type": "uint64"
            }
          ],
          "internalType": "struct Origin",
          "name": "_origin",
          "type": "tuple"
        },
        {
          "internalType": "bytes32",
          "name": "_guid",
          "type": "bytes32"
        },
        {
          "internalType": "bytes",
          "name": "_message",
          "type": "bytes"
        },
        {
          "internalType": "address",
          "name": "_executor",
          "type": "address"
        },
        {
          "internalType": "bytes",
          "name": "_extraData",
          "type": "bytes"
        }
      ],
      "name": "lzReceiveSimulate",
      "outputs": [],
      "stateMutability": "payable",
      "type": "function"
    },
    {
      "inputs": [
        {
          "internalType": "address",
          "name": "",
          "type": "address"
        }
      ],
      "name": "magnifiedDividendCorrections",
      "outputs": [
        {
          "internalType": "int256",
          "name": "",
          "type": "int256"
        }
      ],
      "stateMutability": "view",
      "type": "function"
    },
    {
      "inputs": [],
      "name": "magnifiedDividendPerShare",
      "outputs": [
        {
          "internalType": "uint256",
          "name": "",
          "type": "uint256"
        }
      ],
      "stateMutability": "view",
      "type": "function"
    },
    {
      "inputs": [
        {
          "internalType": "address",
          "name": "_to",
          "type": "address"
        },
        {
          "internalType": "uint256",
          "name": "_amount",
          "type": "uint256"
        }
      ],
      "name": "mint",
      "outputs": [],
      "stateMutability": "nonpayable",
      "type": "function"
    },
    {
      "inputs": [],
      "name": "msgInspector",
      "outputs": [
        {
          "internalType": "address",
          "name": "",
          "type": "address"
        }
      ],
      "stateMutability": "view",
      "type": "function"
    },
    {
      "inputs": [],
      "name": "name",
      "outputs": [
        {
          "internalType": "string",
          "name": "",
          "type": "string"
        }
      ],
      "stateMutability": "view",
      "type": "function"
    },
    {
      "inputs": [
        {
          "internalType": "uint32",
          "name": "",
          "type": "uint32"
        },
        {
          "internalType": "bytes32",
          "name": "",
          "type": "bytes32"
        }
      ],
      "name": "nextNonce",
      "outputs": [
        {
          "internalType": "uint64",
          "name": "nonce",
          "type": "uint64"
        }
      ],
      "stateMutability": "view",
      "type": "function"
    },
    {
      "inputs": [],
      "name": "oApp",
      "outputs": [
        {
          "internalType": "address",
          "name": "",
          "type": "address"
        }
      ],
      "stateMutability": "view",
      "type": "function"
    },
    {
      "inputs": [],
      "name": "oAppVersion",
      "outputs": [
        {
          "internalType": "uint64",
          "name": "senderVersion",
          "type": "uint64"
        },
        {
          "internalType": "uint64",
          "name": "receiverVersion",
          "type": "uint64"
        }
      ],
      "stateMutability": "pure",
      "type": "function"
    },
    {
      "inputs": [],
      "name": "oftVersion",
      "outputs": [
        {
          "internalType": "bytes4",
          "name": "interfaceId",
          "type": "bytes4"
        },
        {
          "internalType": "uint64",
          "name": "version",
          "type": "uint64"
        }
      ],
      "stateMutability": "pure",
      "type": "function"
    },
    {
      "inputs": [],
      "name": "openTheGates",
      "outputs": [],
      "stateMutability": "nonpayable",
      "type": "function"
    },
    {
      "inputs": [],
      "name": "owner",
      "outputs": [
        {
          "internalType": "address",
          "name": "",
          "type": "address"
        }
      ],
      "stateMutability": "view",
      "type": "function"
    },
    {
      "inputs": [
        {
          "internalType": "uint32",
          "name": "_eid",
          "type": "uint32"
        }
      ],
      "name": "peers",
      "outputs": [
        {
          "internalType": "bytes32",
          "name": "",
          "type": "bytes32"
        }
      ],
      "stateMutability": "view",
      "type": "function"
    },
    {
      "inputs": [],
      "name": "preCrime",
      "outputs": [
        {
          "internalType": "address",
          "name": "",
          "type": "address"
        }
      ],
      "stateMutability": "view",
      "type": "function"
    },
    {
      "inputs": [],
      "name": "proxiableUUID",
      "outputs": [
        {
          "internalType": "bytes32",
          "name": "",
          "type": "bytes32"
        }
      ],
      "stateMutability": "view",
      "type": "function"
    },
    {
      "inputs": [
        {
          "components": [
            {
              "internalType": "uint32",
              "name": "dstEid",
              "type": "uint32"
            },
            {
              "internalType": "bytes32",
              "name": "to",
              "type": "bytes32"
            },
            {
              "internalType": "uint256",
              "name": "amountLD",
              "type": "uint256"
            },
            {
              "internalType": "uint256",
              "name": "minAmountLD",
              "type": "uint256"
            },
            {
              "internalType": "bytes",
              "name": "extraOptions",
              "type": "bytes"
            },
            {
              "internalType": "bytes",
              "name": "composeMsg",
              "type": "bytes"
            },
            {
              "internalType": "bytes",
              "name": "oftCmd",
              "type": "bytes"
            }
          ],
          "internalType": "struct SendParam",
          "name": "_sendParam",
          "type": "tuple"
        }
      ],
      "name": "quoteOFT",
      "outputs": [
        {
          "components": [
            {
              "internalType": "uint256",
              "name": "minAmountLD",
              "type": "uint256"
            },
            {
              "internalType": "uint256",
              "name": "maxAmountLD",
              "type": "uint256"
            }
          ],
          "internalType": "struct OFTLimit",
          "name": "oftLimit",
          "type": "tuple"
        },
        {
          "components": [
            {
              "internalType": "int256",
              "name": "feeAmountLD",
              "type": "int256"
            },
            {
              "internalType": "string",
              "name": "description",
              "type": "string"
            }
          ],
          "internalType": "struct OFTFeeDetail[]",
          "name": "oftFeeDetails",
          "type": "tuple[]"
        },
        {
          "components": [
            {
              "internalType": "uint256",
              "name": "amountSentLD",
              "type": "uint256"
            },
            {
              "internalType": "uint256",
              "name": "amountReceivedLD",
              "type": "uint256"
            }
          ],
          "internalType": "struct OFTReceipt",
          "name": "oftReceipt",
          "type": "tuple"
        }
      ],
      "stateMutability": "view",
      "type": "function"
    },
    {
      "inputs": [
        {
          "components": [
            {
              "internalType": "uint32",
              "name": "dstEid",
              "type": "uint32"
            },
            {
              "internalType": "bytes32",
              "name": "to",
              "type": "bytes32"
            },
            {
              "internalType": "uint256",
              "name": "amountLD",
              "type": "uint256"
            },
            {
              "internalType": "uint256",
              "name": "minAmountLD",
              "type": "uint256"
            },
            {
              "internalType": "bytes",
              "name": "extraOptions",
              "type": "bytes"
            },
            {
              "internalType": "bytes",
              "name": "composeMsg",
              "type": "bytes"
            },
            {
              "internalType": "bytes",
              "name": "oftCmd",
              "type": "bytes"
            }
          ],
          "internalType": "struct SendParam",
          "name": "_sendParam",
          "type": "tuple"
        },
        {
          "internalType": "bool",
          "name": "_payInLzToken",
          "type": "bool"
        }
      ],
      "name": "quoteSend",
      "outputs": [
        {
          "components": [
            {
              "internalType": "uint256",
              "name": "nativeFee",
              "type": "uint256"
            },
            {
              "internalType": "uint256",
              "name": "lzTokenFee",
              "type": "uint256"
            }
          ],
          "internalType": "struct MessagingFee",
          "name": "msgFee",
          "type": "tuple"
        }
      ],
      "stateMutability": "view",
      "type": "function"
    },
    {
      "inputs": [],
      "name": "renounceOwnership",
      "outputs": [],
      "stateMutability": "nonpayable",
      "type": "function"
    },
    {
      "inputs": [
        {
          "components": [
            {
              "internalType": "uint32",
              "name": "dstEid",
              "type": "uint32"
            },
            {
              "internalType": "bytes32",
              "name": "to",
              "type": "bytes32"
            },
            {
              "internalType": "uint256",
              "name": "amountLD",
              "type": "uint256"
            },
            {
              "internalType": "uint256",
              "name": "minAmountLD",
              "type": "uint256"
            },
            {
              "internalType": "bytes",
              "name": "extraOptions",
              "type": "bytes"
            },
            {
              "internalType": "bytes",
              "name": "composeMsg",
              "type": "bytes"
            },
            {
              "internalType": "bytes",
              "name": "oftCmd",
              "type": "bytes"
            }
          ],
          "internalType": "struct SendParam",
          "name": "_sendParam",
          "type": "tuple"
        },
        {
          "components": [
            {
              "internalType": "uint256",
              "name": "nativeFee",
              "type": "uint256"
            },
            {
              "internalType": "uint256",
              "name": "lzTokenFee",
              "type": "uint256"
            }
          ],
          "internalType": "struct MessagingFee",
          "name": "_fee",
          "type": "tuple"
        },
        {
          "internalType": "address",
          "name": "_refundAddress",
          "type": "address"
        }
      ],
      "name": "send",
      "outputs": [
        {
          "components": [
            {
              "internalType": "bytes32",
              "name": "guid",
              "type": "bytes32"
            },
            {
              "internalType": "uint64",
              "name": "nonce",
              "type": "uint64"
            },
            {
              "components": [
                {
                  "internalType": "uint256",
                  "name": "nativeFee",
                  "type": "uint256"
                },
                {
                  "internalType": "uint256",
                  "name": "lzTokenFee",
                  "type": "uint256"
                }
              ],
              "internalType": "struct MessagingFee",
              "name": "fee",
              "type": "tuple"
            }
          ],
          "internalType": "struct MessagingReceipt",
          "name": "msgReceipt",
          "type": "tuple"
        },
        {
          "components": [
            {
              "internalType": "uint256",
              "name": "amountSentLD",
              "type": "uint256"
            },
            {
              "internalType": "uint256",
              "name": "amountReceivedLD",
              "type": "uint256"
            }
          ],
          "internalType": "struct OFTReceipt",
          "name": "oftReceipt",
          "type": "tuple"
        }
      ],
      "stateMutability": "payable",
      "type": "function"
    },
    {
      "inputs": [
        {
          "internalType": "address",
          "name": "_delegate",
          "type": "address"
        }
      ],
      "name": "setDelegate",
      "outputs": [],
      "stateMutability": "nonpayable",
      "type": "function"
    },
    {
      "inputs": [
        {
          "components": [
            {
              "internalType": "uint32",
              "name": "eid",
              "type": "uint32"
            },
            {
              "internalType": "uint16",
              "name": "msgType",
              "type": "uint16"
            },
            {
              "internalType": "bytes",
              "name": "options",
              "type": "bytes"
            }
          ],
          "internalType": "struct EnforcedOptionParam[]",
          "name": "_enforcedOptions",
          "type": "tuple[]"
        }
      ],
      "name": "setEnforcedOptions",
      "outputs": [],
      "stateMutability": "nonpayable",
      "type": "function"
    },
    {
      "inputs": [
        {
          "internalType": "address",
          "name": "_account",
          "type": "address"
        },
        {
          "internalType": "bool",
          "name": "_excluded",
          "type": "bool"
        }
      ],
      "name": "setExcluded",
      "outputs": [],
      "stateMutability": "nonpayable",
      "type": "function"
    },
    {
      "inputs": [
        {
          "internalType": "address",
          "name": "_msgInspector",
          "type": "address"
        }
      ],
      "name": "setMsgInspector",
      "outputs": [],
      "stateMutability": "nonpayable",
      "type": "function"
    },
    {
      "inputs": [
        {
          "internalType": "uint32",
          "name": "_eid",
          "type": "uint32"
        },
        {
          "internalType": "bytes32",
          "name": "_peer",
          "type": "bytes32"
        }
      ],
      "name": "setPeer",
      "outputs": [],
      "stateMutability": "nonpayable",
      "type": "function"
    },
    {
      "inputs": [
        {
          "internalType": "address",
          "name": "_preCrime",
          "type": "address"
        }
      ],
      "name": "setPreCrime",
      "outputs": [],
      "stateMutability": "nonpayable",
      "type": "function"
    },
    {
      "inputs": [],
      "name": "sharedDecimals",
      "outputs": [
        {
          "internalType": "uint8",
          "name": "",
          "type": "uint8"
        }
      ],
      "stateMutability": "pure",
      "type": "function"
    },
    {
      "inputs": [],
      "name": "symbol",
      "outputs": [
        {
          "internalType": "string",
          "name": "",
          "type": "string"
        }
      ],
      "stateMutability": "view",
      "type": "function"
    },
    {
      "inputs": [],
      "name": "token",
      "outputs": [
        {
          "internalType": "address",
          "name": "",
          "type": "address"
        }
      ],
      "stateMutability": "view",
      "type": "function"
    },
    {
      "inputs": [],
      "name": "totalDividendsDistributed",
      "outputs": [
        {
          "internalType": "uint256",
          "name": "",
          "type": "uint256"
        }
      ],
      "stateMutability": "view",
      "type": "function"
    },
    {
      "inputs": [],
      "name": "totalSupply",
      "outputs": [
        {
          "internalType": "uint256",
          "name": "",
          "type": "uint256"
        }
      ],
      "stateMutability": "view",
      "type": "function"
    },
    {
      "inputs": [],
      "name": "tradingOpen",
      "outputs": [
        {
          "internalType": "bool",
          "name": "",
          "type": "bool"
        }
      ],
      "stateMutability": "view",
      "type": "function"
    },
    {
      "inputs": [
        {
          "internalType": "address",
          "name": "to",
          "type": "address"
        },
        {
          "internalType": "uint256",
          "name": "value",
          "type": "uint256"
        }
      ],
      "name": "transfer",
      "outputs": [
        {
          "internalType": "bool",
          "name": "",
          "type": "bool"
        }
      ],
      "stateMutability": "nonpayable",
      "type": "function"
    },
    {
      "inputs": [
        {
          "internalType": "address",
          "name": "from",
          "type": "address"
        },
        {
          "internalType": "address",
          "name": "to",
          "type": "address"
        },
        {
          "internalType": "uint256",
          "name": "value",
          "type": "uint256"
        }
      ],
      "name": "transferFrom",
      "outputs": [
        {
          "internalType": "bool",
          "name": "",
          "type": "bool"
        }
      ],
      "stateMutability": "nonpayable",
      "type": "function"
    },
    {
      "inputs": [
        {
          "internalType": "address",
          "name": "newOwner",
          "type": "address"
        }
      ],
      "name": "transferOwnership",
      "outputs": [],
      "stateMutability": "nonpayable",
      "type": "function"
    },
    {
      "inputs": [
        {
          "internalType": "address",
          "name": "newImplementation",
          "type": "address"
        },
        {
          "internalType": "bytes",
          "name": "data",
          "type": "bytes"
        }
      ],
      "name": "upgradeToAndCall",
      "outputs": [],
      "stateMutability": "payable",
      "type": "function"
    },
    {
      "inputs": [
        {
          "internalType": "address",
          "name": "",
          "type": "address"
        }
      ],
      "name": "withdrawnDividends",
      "outputs": [
        {
          "internalType": "uint256",
          "name": "",
          "type": "uint256"
        }
      ],
      "stateMutability": "view",
      "type": "function"
    }
  ],
  "bytecode": "0x60e06040523060c0523480156200001557600080fd5b506040516200478938038062004789833981016040819052620000389162000148565b6001600160a01b038116608052806012816200005660068362000190565b6200006390600a620002a9565b60a05250620000749150506200007b565b50620002ba565b6000620000876200011d565b805490915068010000000000000000900460ff1615620000ba5760405163f92ee8a960e01b815260040160405180910390fd5b80546001600160401b03908116146200011a5780546001600160401b0319166001600160401b0390811782556040519081527fc7f505b2f371ae2175ee4913f4499e1f2633a7b5936321eed1cdaeb6115181d29060200160405180910390a15b50565b6000807ff0c57e16840df040f15088dc2f81fe391c3923bec73e23a9662efc9c229c6a005b92915050565b6000602082840312156200015b57600080fd5b81516001600160a01b03811681146200017357600080fd5b9392505050565b634e487b7160e01b600052601160045260246000fd5b60ff82811682821603908111156200014257620001426200017a565b600181815b80851115620001ed578160001904821115620001d157620001d16200017a565b80851615620001df57918102915b93841c9390800290620001b1565b509250929050565b600082620002065750600162000142565b81620002155750600062000142565b81600181146200022e5760028114620002395762000259565b600191505062000142565b60ff8411156200024d576200024d6200017a565b50506001821b62000142565b5060208310610133831016604e8410600b84101617156200027e575081810a62000142565b6200028a8383620001ac565b8060001904821115620002a157620002a16200017a565b029392505050565b60006200017360ff841683620001f5565b60805160a05160c05161444b6200033e600039600081816122630152818161228c01526123cd01526000818161088f015281816128a00152818161291501526129f001526000818161072201528181610e9801528181611b0a01528181611e320152818161215701528181612ca901528181612f580152613011015261444b6000f3fe6080604052600436106103975760003560e01c80637d25a05e116101dc578063b98bd07011610102578063d4243885116100a0578063f2fde38b1161006f578063f2fde38b14610b1e578063fc0c546a14610684578063ff7bd03d14610b3e578063ffb54a9914610b5e57600080fd5b8063d424388514610a84578063dd62ed3e14610aa4578063de3aaf6114610ac4578063e5d8452714610af157600080fd5b8063bd815db0116100dc578063bd815db014610a1d578063c7c7f5b314610a30578063ca5eb5e114610a51578063d045a0dc14610a7157600080fd5b8063b98bd0701461099d578063bb0b6a53146109bd578063bc70b354146109fd57600080fd5b8063963efcaa1161017a578063a9059cbb11610149578063a9059cbb14610922578063ad3cb1cc14610942578063b731ea0a14610973578063b88a802f1461098857600080fd5b8063963efcaa1461087d57806397a06724146108b15780639d0a383f146108de5780639f68b9641461090e57600080fd5b806385a6b3ae116101b657806385a6b3ae1461081d5780638da5cb5b1461083357806391b89fba1461084857806395d89b411461086857600080fd5b80637d25a05e146107ae57806382413eac146107e9578063857749b01461080957600080fd5b80633243c791116102c157806352d1902d1161025f5780636fc1b31e1161022e5780636fc1b31e1461074457806370a0823114610764578063715018a6146107845780637bbdad111461079957600080fd5b806352d1902d146106975780635535d461146106ac5780635a0dfe4d146106cc5780635e280f111461071057600080fd5b80633b6f743b1161029b5780633b6f743b1461062457806340c10f19146106515780634f1ef2861461067157806352ae28791461068457600080fd5b80633243c791146105ce5780633400288b146105ee5780633a7960e01461060e57600080fd5b8063156a0d0f1161033957806323b872dd1161030857806323b872dd1461054c57806327ce01471461056c5780632836be241461058c578063313ce567146105ac57600080fd5b8063156a0d0f146104b057806317442b70146104d757806318160ddd146104f95780631f5e13341461053757600080fd5b80630d35b415116103755780630d35b41514610419578063111ecdad1461044857806313137d6514610475578063134d4f251461048857600080fd5b806306fdde031461039c578063077f224a146103c7578063095ea7b3146103e9575b600080fd5b3480156103a857600080fd5b506103b1610b78565b6040516103be919061325c565b60405180910390f35b3480156103d357600080fd5b506103e76103e2366004613377565b610c3b565b005b3480156103f557600080fd5b506104096104043660046133ee565b610d7b565b60405190151581526020016103be565b34801561042557600080fd5b50610439610434366004613432565b610d95565b6040516103be93929190613466565b34801561045457600080fd5b5061045d610e61565b6040516001600160a01b0390911681526020016103be565b6103e7610483366004613559565b610e96565b34801561049457600080fd5b5061049d600281565b60405161ffff90911681526020016103be565b3480156104bc57600080fd5b506040805162b9270b60e21b815260016020820152016103be565b3480156104e357600080fd5b50604080516001815260026020820152016103be565b34801561050557600080fd5b507f52c63247e1f47db19d5ce0460030c497f067ca4cebf71ba98eeadabe20bace02545b6040519081526020016103be565b34801561054357600080fd5b5061049d600181565b34801561055857600080fd5b506104096105673660046135f8565b610f56565b34801561057857600080fd5b50610529610587366004613639565b610f7c565b34801561059857600080fd5b506103e76105a7366004613664565b610fc5565b3480156105b857600080fd5b5060125b60405160ff90911681526020016103be565b3480156105da57600080fd5b506103e76105e936600461369d565b610ff8565b3480156105fa57600080fd5b506103e76106093660046136cf565b611100565b34801561061a57600080fd5b5061052960005481565b34801561063057600080fd5b5061064461063f3660046136eb565b61116d565b6040516103be9190613731565b34801561065d57600080fd5b506103e761066c3660046133ee565b6111d4565b6103e761067f366004613748565b6111ea565b34801561069057600080fd5b503061045d565b3480156106a357600080fd5b50610529611205565b3480156106b857600080fd5b506103b16106c73660046137bd565b611222565b3480156106d857600080fd5b506104096106e73660046136cf565b63ffffffff9190911660009081526000805160206143d683398151915260205260409020541490565b34801561071c57600080fd5b5061045d7f000000000000000000000000000000000000000000000000000000000000000081565b34801561075057600080fd5b506103e761075f366004613639565b6112fd565b34801561077057600080fd5b5061052961077f366004613639565b611379565b34801561079057600080fd5b506103e76113a1565b3480156107a557600080fd5b506103e76113b5565b3480156107ba57600080fd5b506107d16107c93660046136cf565b600092915050565b6040516001600160401b0390911681526020016103be565b3480156107f557600080fd5b506104096108043660046137f0565b611448565b34801561081557600080fd5b5060066105bc565b34801561082957600080fd5b5061052960045481565b34801561083f57600080fd5b5061045d61145d565b34801561085457600080fd5b50610529610863366004613639565b611486565b34801561087457600080fd5b506103b16114b2565b34801561088957600080fd5b506105297f000000000000000000000000000000000000000000000000000000000000000081565b3480156108bd57600080fd5b506105296108cc366004613639565b60016020526000908152604090205481565b3480156108ea57600080fd5b506104096108f9366004613639565b60066020526000908152604090205460ff1681565b34801561091a57600080fd5b506000610409565b34801561092e57600080fd5b5061040961093d3660046133ee565b6114f1565b34801561094e57600080fd5b506103b1604051806040016040528060058152602001640352e302e360dc1b81525081565b34801561097f57600080fd5b5061045d6114ff565b34801561099457600080fd5b506103e7611528565b3480156109a957600080fd5b506103e76109b836600461389a565b611601565b3480156109c957600080fd5b506105296109d83660046138db565b63ffffffff1660009081526000805160206143d6833981519152602052604090205490565b348015610a0957600080fd5b506103b1610a183660046138f6565b611782565b6103e7610a2b36600461389a565b611918565b610a43610a3e366004613956565b611aaf565b6040516103be9291906139b8565b348015610a5d57600080fd5b506103e7610a6c366004613639565b611ae3565b6103e7610a7f366004613559565b611b69565b348015610a9057600080fd5b506103e7610a9f366004613639565b611b98565b348015610ab057600080fd5b50610529610abf366004613a0a565b611c0c565b348015610ad057600080fd5b50610529610adf366004613639565b60026020526000908152604090205481565b348015610afd57600080fd5b50610529610b0c366004613639565b60036020526000908152604090205481565b348015610b2a57600080fd5b506103e7610b39366004613639565b611c56565b348015610b4a57600080fd5b50610409610b59366004613a38565b611c91565b348015610b6a57600080fd5b506005546104099060ff1681565b7f52c63247e1f47db19d5ce0460030c497f067ca4cebf71ba98eeadabe20bace0380546060916000805160206143b683398151915291610bb790613a54565b80601f0160208091040260200160405190810160405280929190818152602001828054610be390613a54565b8015610c305780601f10610c0557610100808354040283529160200191610c30565b820191906000526020600020905b815481529060010190602001808311610c1357829003601f168201915b505050505091505090565b6000610c45611caf565b805490915060ff600160401b82041615906001600160401b0316600081158015610c6c5750825b90506000826001600160401b03166001148015610c885750303b155b905081158015610c96575080155b15610cb45760405163f92ee8a960e01b815260040160405180910390fd5b845467ffffffffffffffff191660011785558315610cde57845460ff60401b1916600160401b1785555b610ce786611cd8565b610cf2888888611ce9565b6001600160a01b0386166000908152600660205260408082208054600160ff19918216811790925530845291909220805490911690911790558315610d7157845460ff60401b19168555604051600181527fc7f505b2f371ae2175ee4913f4499e1f2633a7b5936321eed1cdaeb6115181d29060200160405180910390a15b5050505050505050565b600033610d89818585611d09565b60019150505b92915050565b60408051808201909152600080825260208201526060610dc8604051806040016040528060008152602001600081525090565b6040805180820182526000808252600019602080840182905284518381529081019094529195509182610e1e565b604080518082019091526000815260606020820152815260200190600190039081610df65790505b509350600080610e43604089013560608a0135610e3e60208c018c6138db565b611d16565b60408051808201909152918252602082015296989597505050505050565b6000807f41db8a78b0206aba5c54bcbfc2bda0d84082a84eb88e680379a57b9e9f653c005b546001600160a01b031692915050565b7f00000000000000000000000000000000000000000000000000000000000000006001600160a01b03163314610ee6576040516391ac5e4f60e01b81523360048201526024015b60405180910390fd5b60208701803590610f0090610efb908a6138db565b611d52565b14610f3e57610f1260208801886138db565b60405163309afaf360e21b815263ffffffff909116600482015260208801356024820152604401610edd565b610f4d87878787878787611d9d565b50505050505050565b600033610f64858285611f04565b610f6f858585611f6b565b60019150505b9392505050565b6001600160a01b038116600090815260016020526040812054600160801b90610fa484611379565b600054610fb19190613a9e565b610fbb9190613ab5565b610d8f9190613add565b610fcd611fca565b6001600160a01b03919091166000908152600660205260409020805460ff1916911515919091179055565b60006110227f52c63247e1f47db19d5ce0460030c497f067ca4cebf71ba98eeadabe20bace025490565b1161105b5760405162461bcd60e51b81526020600482015260096024820152684e6f20537570706c7960b81b6044820152606401610edd565b80156110fd577f52c63247e1f47db19d5ce0460030c497f067ca4cebf71ba98eeadabe20bace0254611091600160801b83613a9e565b61109b9190613add565b6000808282546110ab9190613aff565b909155505060405181815233907fa493a9229478c3fcd73f66d2cdeb7f94fd0f341da924d1054236d784541165119060200160405180910390a280600460008282546110f79190613aff565b90915550505b50565b611108611fca565b63ffffffff821660008181526000805160206143d6833981519152602081815260409283902085905582519384528301849052917f238399d427b947898edb290f5ff0f9109849b1c3ba196a42e35f00c50a54b98b91015b60405180910390a1505050565b6040805180820190915260008082526020820152600061119d60408501356060860135610e3e60208801886138db565b9150506000806111ad8684611ffc565b90925090506111ca6111c260208801886138db565b838388612141565b9695505050505050565b6111dc611fca565b6111e68282612222565b5050565b6111f2612258565b6111fb826122fd565b6111e68282612305565b600061120f6123c2565b506000805160206143f683398151915290565b63ffffffff821660009081527f8d2bda5d9f6ffb5796910376005392955773acee5548d0fcdb10e7c264ea00006020818152604080842061ffff861685529091529091208054606092919061127690613a54565b80601f01602080910402602001604051908101604052809291908181526020018280546112a290613a54565b80156112ef5780601f106112c4576101008083540402835291602001916112ef565b820191906000526020600020905b8154815290600101906020018083116112d257829003601f168201915b505050505091505092915050565b611305611fca565b7f41db8a78b0206aba5c54bcbfc2bda0d84082a84eb88e680379a57b9e9f653c0080546001600160a01b0319166001600160a01b03831690811782556040519081527ff0be4f1e87349231d80c36b33f9e8639658eeaf474014dee15a3e6a4d4414197906020015b60405180910390a15050565b6001600160a01b031660009081526000805160206143b6833981519152602052604090205490565b6113a9611fca565b6113b3600061240b565b565b6113bd611fca565b60055460ff16156114105760405162461bcd60e51b815260206004820152601a60248201527f5468652067617465732061726520616c7265616479206f70656e0000000000006044820152606401610edd565b6005805460ff191660011790556040517faade79dd853ad45b703ba84faedc6f70f309682c10f216c9964164a69fa337ec90600090a1565b6001600160a01b03811630145b949350505050565b6000807f9016d09d72d40fdae2fd8ceac6b6234c7706214fd39c1cd1e609a0528c199300610e86565b6001600160a01b0381166000908152600260205260408120546114a883610f7c565b610d8f9190613b12565b7f52c63247e1f47db19d5ce0460030c497f067ca4cebf71ba98eeadabe20bace0480546060916000805160206143b683398151915291610bb790613a54565b600033610d89818585611f6b565b6000807fefb041d771d6daaa55702fff6eb740d63ba559a75d2d1d3e151c78ff2480b600610e86565b3360009081526003602052604090205443116115865760405162461bcd60e51b815260206004820152601e60248201527f416e74692d466c6173683a204f6e6520626c6f636b20636f6f6c646f776e00006044820152606401610edd565b600061159133611486565b905080156110fd5733600090815260026020526040812080548392906115b8908490613aff565b909155506115c9905030338361247c565b60405181815233907fee503bee2bb6a87e57bc57db795f98137327401a0e7b7ce42e37926cc1a9ca4d9060200160405180910390a250565b611609611fca565b7f8d2bda5d9f6ffb5796910376005392955773acee5548d0fcdb10e7c264ea000060005b828110156117505761166f84848381811061164a5761164a613b25565b905060200281019061165c9190613b3b565b61166a906040810190613b5b565b612618565b83838281811061168157611681613b25565b90506020028101906116939190613b3b565b6116a1906040810190613b5b565b8360008787868181106116b6576116b6613b25565b90506020028101906116c89190613b3b565b6116d69060208101906138db565b63ffffffff1663ffffffff168152602001908152602001600020600087878681811061170457611704613b25565b90506020028101906117169190613b3b565b611727906040810190602001613ba1565b61ffff168152602081019190915260400160002091611747919083613c0c565b5060010161162d565b507fbe4864a8e820971c0247f5992e2da559595f7bf076a21cb5928d443d2a13b6748383604051611160929190613cf4565b63ffffffff841660009081527f8d2bda5d9f6ffb5796910376005392955773acee5548d0fcdb10e7c264ea00006020818152604080842061ffff881685529091528220805460609391906117d590613a54565b80601f016020809104026020016040519081016040528092919081815260200182805461180190613a54565b801561184e5780601f106118235761010080835404028352916020019161184e565b820191906000526020600020905b81548152906001019060200180831161183157829003601f168201915b50505050509050805160000361189f5784848080601f016020809104026020016040519081016040528093929190818152602001838380828437600092019190915250929550611455945050505050565b60008490036118b15791506114559050565b600284106118fb576118c38585612618565b806118d18560028189613dd8565b6040516020016118e393929190613e02565b60405160208183030381529060405292505050611455565b8484604051639a6d49cd60e01b8152600401610edd929190613e2a565b60005b81811015611a2e573683838381811061193657611936613b25565b90506020028101906119489190613e3e565b905061198861195a60208301836138db565b602083013563ffffffff9190911660009081526000805160206143d683398151915260205260409020541490565b6119925750611a26565b3063d045a0dc60c08301358360a08101356119b1610100830183613b5b565b6119c2610100890160e08a01613639565b6119d06101208a018a613b5b565b6040518963ffffffff1660e01b81526004016119f29796959493929190613e6a565b6000604051808303818588803b158015611a0b57600080fd5b505af1158015611a1f573d6000803e3d6000fd5b5050505050505b60010161191b565b50336001600160a01b0316638e9e70996040518163ffffffff1660e01b8152600401600060405180830381865afa158015611a6d573d6000803e3d6000fd5b505050506040513d6000823e601f3d908101601f19168201604052611a959190810190613ef0565b604051638351eea760e01b8152600401610edd919061325c565b611ab76131c5565b6040805180820190915260008082526020820152611ad685858561265a565b915091505b935093915050565b611aeb611fca565b60405163ca5eb5e160e01b81526001600160a01b0382811660048301527f0000000000000000000000000000000000000000000000000000000000000000169063ca5eb5e190602401600060405180830381600087803b158015611b4e57600080fd5b505af1158015611b62573d6000803e3d6000fd5b5050505050565b333014611b895760405163029a949d60e31b815260040160405180910390fd5b610f4d87878787878787610f3e565b611ba0611fca565b7fefb041d771d6daaa55702fff6eb740d63ba559a75d2d1d3e151c78ff2480b60080546001600160a01b0319166001600160a01b03831690811782556040519081527fd48d879cef83a1c0bdda516f27b13ddb1b3f8bbac1c9e1511bb2a659c24277609060200161136d565b6001600160a01b0391821660009081527f52c63247e1f47db19d5ce0460030c497f067ca4cebf71ba98eeadabe20bace016020908152604080832093909416825291909152205490565b611c5e611fca565b6001600160a01b038116611c8857604051631e4fbdf760e01b815260006004820152602401610edd565b6110fd8161240b565b600060208201803590611ca8906109d890856138db565b1492915050565b6000807ff0c57e16840df040f15088dc2f81fe391c3923bec73e23a9662efc9c229c6a00610d8f565b611ce0612755565b6110fd8161277a565b611cf1612755565b611cfb8383612782565b611d0481612794565b505050565b611d0483838360016127b5565b600080611d228561289c565b915081905083811015611adb576040516371c4efed60e01b81526004810182905260248101859052604401610edd565b63ffffffff811660009081526000805160206143d68339815191526020819052604082205480610f755760405163f6ff4fb760e01b815263ffffffff85166004820152602401610edd565b6000611daf611dac87876128d3565b90565b90506000611ddb82611dc9611dc48a8a6128eb565b61290e565b611dd660208d018d6138db565b612943565b90506028861115611ea2576000611e18611dfb60608c0160408d01613f5d565b611e0860208d018d6138db565b84611e138c8c61296b565b6129b6565b604051633e5ac80960e11b81529091506001600160a01b037f00000000000000000000000000000000000000000000000000000000000000001690637cb5901290611e6e9086908d906000908790600401613f7a565b600060405180830381600087803b158015611e8857600080fd5b505af1158015611e9c573d6000803e3d6000fd5b50505050505b6001600160a01b038216887fefed6d3500546b29533b128a29e3a94d70788727f0507505ac12eaf2e578fd9c611edb60208d018d6138db565b6040805163ffffffff9092168252602082018690520160405180910390a3505050505050505050565b6000611f108484611c0c565b9050600019811015611f655781811015611f5657604051637dc7a0d960e11b81526001600160a01b03841660048201526024810182905260448101839052606401610edd565b611f65848484840360006127b5565b50505050565b6001600160a01b038316611f9557604051634b637e8f60e11b815260006004820152602401610edd565b6001600160a01b038216611fbf5760405163ec442f0560e01b815260006004820152602401610edd565b611d0483838361247c565b33611fd361145d565b6001600160a01b0316146113b35760405163118cdaa760e01b8152336004820152602401610edd565b60608060006120598560200135612012866129e8565b61201f60a0890189613b5b565b8080601f016020809104026020016040519081016040528093929190818152602001838380828437600092019190915250612a4292505050565b909350905060008161206c57600161206f565b60025b905061208f61208160208801886138db565b82610a1860808a018a613b5b565b7f41db8a78b0206aba5c54bcbfc2bda0d84082a84eb88e680379a57b9e9f653c008054919450906001600160a01b031680156121365760405163043a78eb60e01b81526001600160a01b0382169063043a78eb906120f39089908990600401613fab565b602060405180830381865afa158015612110573d6000803e3d6000fd5b505050506040513d601f19601f820116820180604052508101906121349190613fd0565b505b505050509250929050565b60408051808201909152600080825260208201527f00000000000000000000000000000000000000000000000000000000000000006001600160a01b031663ddc28c586040518060a001604052808863ffffffff1681526020016121a489611d52565b8152602001878152602001868152602001851515815250306040518363ffffffff1660e01b81526004016121d9929190613fed565b6040805180830381865afa1580156121f5573d6000803e3d6000fd5b505050506040513d601f19601f820116820180604052508101906122199190614096565b95945050505050565b6001600160a01b03821661224c5760405163ec442f0560e01b815260006004820152602401610edd565b6111e66000838361247c565b306001600160a01b037f00000000000000000000000000000000000000000000000000000000000000001614806122df57507f00000000000000000000000000000000000000000000000000000000000000006001600160a01b03166122d36000805160206143f6833981519152546001600160a01b031690565b6001600160a01b031614155b156113b35760405163703e46dd60e11b815260040160405180910390fd5b6110fd611fca565b816001600160a01b03166352d1902d6040518163ffffffff1660e01b8152600401602060405180830381865afa92505050801561235f575060408051601f3d908101601f1916820190925261235c918101906140b2565b60015b61238757604051634c9c8ce360e01b81526001600160a01b0383166004820152602401610edd565b6000805160206143f683398151915281146123b857604051632a87526960e21b815260048101829052602401610edd565b611d048383612abc565b306001600160a01b037f000000000000000000000000000000000000000000000000000000000000000016146113b35760405163703e46dd60e11b815260040160405180910390fd5b7f9016d09d72d40fdae2fd8ceac6b6234c7706214fd39c1cd1e609a0528c19930080546001600160a01b031981166001600160a01b03848116918217845560405192169182907f8be0079c531659141344cd1fd0a4f28419497f9722a3daafe3b4186f6b6457e090600090a3505050565b6001600160a01b0383161580159061249c57506001600160a01b03821615155b156125365760055460ff16612536576001600160a01b03831660009081526006602052604090205460ff16806124ea57506001600160a01b03821660009081526006602052604090205460ff165b6125365760405162461bcd60e51b815260206004820152601c60248201527f54686520507572676520686173206e6f742079657420626567756e2e000000006044820152606401610edd565b612541838383612b12565b8015611d04576001600160a01b0382161580159061256857506001600160a01b0382163014155b15612589576001600160a01b03821660009081526003602052604090204390555b6000805461259790836140cb565b90506001600160a01b038416156125d6576001600160a01b038416600090815260016020526040812080548392906125d0908490613ab5565b90915550505b6001600160a01b03831615611f65576001600160a01b0383166000908152600160205260408120805483929061260d9084906140fb565b909155505050505050565b60006126276002828486613dd8565b61263091614122565b60f01c905060038114611d04578282604051639a6d49cd60e01b8152600401610edd929190613e2a565b6126626131c5565b604080518082019091526000808252602082015260008061269933604089013560608a013561269460208c018c6138db565b612c50565b915091506000806126aa8984611ffc565b90925090506126d66126bf60208b018b6138db565b83836126d0368d90038d018d614150565b8b612c76565b60408051808201909152858152602080820186905282519298509096503391907f85496b760a4b7f8d66384b9df21b381f5d1b1e79f229a47aaf4c232edc2fe59a90612724908d018d6138db565b6040805163ffffffff909216825260208201899052810187905260600160405180910390a350505050935093915050565b61275d612d81565b6113b357604051631afcd79f60e31b815260040160405180910390fd5b611c5e612755565b61278a612755565b6111e68282612d9b565b61279c612755565b6127a581612dec565b6127ad612dfd565b6110fd612dfd565b6000805160206143b68339815191526001600160a01b0385166127ee5760405163e602df0560e01b815260006004820152602401610edd565b6001600160a01b03841661281857604051634a1406b160e11b815260006004820152602401610edd565b6001600160a01b03808616600090815260018301602090815260408083209388168352929052208390558115611b6257836001600160a01b0316856001600160a01b03167f8c5be1e5ebec7d5bd14f71427d1e84f3dd0314c0f7b2291e5b200ac8c7c3b9258560405161288d91815260200190565b60405180910390a35050505050565b60007f00000000000000000000000000000000000000000000000000000000000000006128c98184613add565b610d8f9190613a9e565b60006128e26020828486613dd8565b610f7591614182565b60006128fb602860208486613dd8565b612904916141a0565b60c01c9392505050565b6000610d8f7f00000000000000000000000000000000000000000000000000000000000000006001600160401b038416613a9e565b60006001600160a01b0384166129595761dead93505b6129638484612222565b509092915050565b606061297a8260288186613dd8565b8080601f016020809104026020016040519081016040528093929190818152602001838380828437600092019190915250929695505050505050565b6060848484846040516020016129cf94939291906141ce565b6040516020818303038152906040529050949350505050565b600080612a157f000000000000000000000000000000000000000000000000000000000000000084613add565b90506001600160401b03811115610d8f5760405163e2ce941360e01b815260048101829052602401610edd565b8051606090151580612a8b578484604051602001612a7792919091825260c01b6001600160c01b031916602082015260280190565b604051602081830303815290604052612ab2565b84843385604051602001612aa2949392919061421d565b6040516020818303038152906040525b9150935093915050565b612ac582612e05565b6040516001600160a01b038316907fbc7cd75a20ee27fd9adebab32041f755214dbc6bffa90cc0225b39da2e5c2d3b90600090a2805115612b0a57611d048282612e6a565b6111e6612ed7565b6000805160206143b68339815191526001600160a01b038416612b4e5781816002016000828254612b439190613aff565b90915550612bc09050565b6001600160a01b03841660009081526020829052604090205482811015612ba15760405163391434e360e21b81526001600160a01b03861660048201526024810182905260448101849052606401610edd565b6001600160a01b03851660009081526020839052604090209083900390555b6001600160a01b038316612bde576002810180548390039055612bfd565b6001600160a01b03831660009081526020829052604090208054830190555b826001600160a01b0316846001600160a01b03167fddf252ad1be2c89b69c2b068fc378daa952ba7f163c4a11628f55a4df523b3ef84604051612c4291815260200190565b60405180910390a350505050565b600080612c5e858585611d16565b9092509050612c6d8683612ef6565b94509492505050565b612c7e6131c5565b6000612c8d8460000151612f2c565b602085015190915015612ca757612ca78460200151612f54565b7f00000000000000000000000000000000000000000000000000000000000000006001600160a01b0316632637a450826040518060a001604052808b63ffffffff168152602001612cf78c611d52565b81526020018a815260200189815260200160008960200151111515815250866040518463ffffffff1660e01b8152600401612d33929190613fed565b60806040518083038185885af1158015612d51573d6000803e3d6000fd5b50505050506040513d601f19601f82011682018060405250810190612d769190614260565b979650505050505050565b6000612d8b611caf565b54600160401b900460ff16919050565b612da3612755565b6000805160206143b68339815191527f52c63247e1f47db19d5ce0460030c497f067ca4cebf71ba98eeadabe20bace03612ddd84826142c7565b5060048101611f6583826142c7565b612df4612755565b6127a581613036565b6113b3612755565b806001600160a01b03163b600003612e3b57604051634c9c8ce360e01b81526001600160a01b0382166004820152602401610edd565b6000805160206143f683398151915280546001600160a01b0319166001600160a01b0392909216919091179055565b6060600080846001600160a01b031684604051612e879190614386565b600060405180830381855af49150503d8060008114612ec2576040519150601f19603f3d011682016040523d82523d6000602084013e612ec7565b606091505b5091509150612219858383613047565b34156113b35760405163b398979f60e01b815260040160405180910390fd5b6001600160a01b038216612f2057604051634b637e8f60e11b815260006004820152602401610edd565b6111e68260008361247c565b6000813414612f50576040516304fb820960e51b8152346004820152602401610edd565b5090565b60007f00000000000000000000000000000000000000000000000000000000000000006001600160a01b031663e4fe1d946040518163ffffffff1660e01b8152600401602060405180830381865afa158015612fb4573d6000803e3d6000fd5b505050506040513d601f19601f82011682018060405250810190612fd89190614398565b90506001600160a01b038116613001576040516329b99a9560e11b815260040160405180910390fd5b6111e66001600160a01b038216337f0000000000000000000000000000000000000000000000000000000000000000856130a3565b61303e612755565b6110fd816130fd565b60608261305c576130578261312c565b610f75565b815115801561307357506001600160a01b0384163b155b1561309c57604051639996b31560e01b81526001600160a01b0385166004820152602401610edd565b5080610f75565b604080516001600160a01b0385811660248301528416604482015260648082018490528251808303909101815260849091019091526020810180516001600160e01b03166323b872dd60e01b179052611f65908590613154565b613105612755565b6001600160a01b038116611aeb57604051632d618d8160e21b815260040160405180910390fd5b80511561313b57805160208201fd5b60405163d6bda27560e01b815260040160405180910390fd5b600080602060008451602086016000885af180613177576040513d6000823e3d81fd5b50506000513d9150811561318f57806001141561319c565b6001600160a01b0384163b155b15611f6557604051635274afe760e01b81526001600160a01b0385166004820152602401610edd565b60405180606001604052806000801916815260200160006001600160401b03168152602001613207604051806040016040528060008152602001600081525090565b905290565b60005b8381101561322757818101518382015260200161320f565b50506000910152565b6000815180845261324881602086016020860161320c565b601f01601f19169290920160200192915050565b602081526000610f756020830184613230565b634e487b7160e01b600052604160045260246000fd5b604080519081016001600160401b03811182821017156132a7576132a761326f565b60405290565b604051601f8201601f191681016001600160401b03811182821017156132d5576132d561326f565b604052919050565b60006001600160401b038211156132f6576132f661326f565b50601f01601f191660200190565b6000613317613312846132dd565b6132ad565b905082815283838301111561332b57600080fd5b828260208301376000602084830101529392505050565b600082601f83011261335357600080fd5b610f7583833560208501613304565b6001600160a01b03811681146110fd57600080fd5b60008060006060848603121561338c57600080fd5b83356001600160401b03808211156133a357600080fd5b6133af87838801613342565b945060208601359150808211156133c557600080fd5b506133d286828701613342565b92505060408401356133e381613362565b809150509250925092565b6000806040838503121561340157600080fd5b823561340c81613362565b946020939093013593505050565b600060e0828403121561342c57600080fd5b50919050565b60006020828403121561344457600080fd5b81356001600160401b0381111561345a57600080fd5b6114558482850161341a565b8351815260208085015190820152600060a08201604060a0604085015281865180845260c08601915060c08160051b8701019350602080890160005b838110156134e15788870360bf190185528151805188528301518388018790526134ce87890182613230565b97505093820193908201906001016134a2565b50508751606088015250505060208501516080850152509050611455565b60006060828403121561342c57600080fd5b60008083601f84011261352357600080fd5b5081356001600160401b0381111561353a57600080fd5b60208301915083602082850101111561355257600080fd5b9250929050565b600080600080600080600060e0888a03121561357457600080fd5b61357e89896134ff565b96506060880135955060808801356001600160401b03808211156135a157600080fd5b6135ad8b838c01613511565b909750955060a08a013591506135c282613362565b90935060c089013590808211156135d857600080fd5b506135e58a828b01613511565b989b979a50959850939692959293505050565b60008060006060848603121561360d57600080fd5b833561361881613362565b9250602084013561362881613362565b929592945050506040919091013590565b60006020828403121561364b57600080fd5b8135610f7581613362565b80151581146110fd57600080fd5b6000806040838503121561367757600080fd5b823561368281613362565b9150602083013561369281613656565b809150509250929050565b6000602082840312156136af57600080fd5b5035919050565b803563ffffffff811681146136ca57600080fd5b919050565b600080604083850312156136e257600080fd5b61340c836136b6565b600080604083850312156136fe57600080fd5b82356001600160401b0381111561371457600080fd5b6137208582860161341a565b925050602083013561369281613656565b815181526020808301519082015260408101610d8f565b6000806040838503121561375b57600080fd5b823561376681613362565b915060208301356001600160401b0381111561378157600080fd5b8301601f8101851361379257600080fd5b6137a185823560208401613304565b9150509250929050565b803561ffff811681146136ca57600080fd5b600080604083850312156137d057600080fd5b6137d9836136b6565b91506137e7602084016137ab565b90509250929050565b60008060008060a0858703121561380657600080fd5b61381086866134ff565b935060608501356001600160401b0381111561382b57600080fd5b61383787828801613511565b909450925050608085013561384b81613362565b939692955090935050565b60008083601f84011261386857600080fd5b5081356001600160401b0381111561387f57600080fd5b6020830191508360208260051b850101111561355257600080fd5b600080602083850312156138ad57600080fd5b82356001600160401b038111156138c357600080fd5b6138cf85828601613856565b90969095509350505050565b6000602082840312156138ed57600080fd5b610f75826136b6565b6000806000806060858703121561390c57600080fd5b613915856136b6565b9350613923602086016137ab565b925060408501356001600160401b0381111561393e57600080fd5b61394a87828801613511565b95989497509550505050565b6000806000838503608081121561396c57600080fd5b84356001600160401b0381111561398257600080fd5b61398e8782880161341a565b9450506040601f19820112156139a357600080fd5b5060208401915060608401356133e381613362565b600060c082019050835182526001600160401b03602085015116602083015260408401516139f3604084018280518252602090810151910152565b5082516080830152602083015160a0830152610f75565b60008060408385031215613a1d57600080fd5b8235613a2881613362565b9150602083013561369281613362565b600060608284031215613a4a57600080fd5b610f7583836134ff565b600181811c90821680613a6857607f821691505b60208210810361342c57634e487b7160e01b600052602260045260246000fd5b634e487b7160e01b600052601160045260246000fd5b8082028115828204841417610d8f57610d8f613a88565b8082018281126000831280158216821582161715613ad557613ad5613a88565b505092915050565b600082613afa57634e487b7160e01b600052601260045260246000fd5b500490565b80820180821115610d8f57610d8f613a88565b81810381811115610d8f57610d8f613a88565b634e487b7160e01b600052603260045260246000fd5b60008235605e19833603018112613b5157600080fd5b9190910192915050565b6000808335601e19843603018112613b7257600080fd5b8301803591506001600160401b03821115613b8c57600080fd5b60200191503681900382131561355257600080fd5b600060208284031215613bb357600080fd5b610f75826137ab565b601f821115611d04576000816000526020600020601f850160051c81016020861015613be55750805b601f850160051c820191505b81811015613c0457828155600101613bf1565b505050505050565b6001600160401b03831115613c2357613c2361326f565b613c3783613c318354613a54565b83613bbc565b6000601f841160018114613c6b5760008515613c535750838201355b600019600387901b1c1916600186901b178355611b62565b600083815260209020601f19861690835b82811015613c9c5786850135825560209485019460019092019101613c7c565b5086821015613cb95760001960f88860031b161c19848701351681555b505060018560011b0183555050505050565b81835281816020850137506000828201602090810191909152601f909101601f19169091010190565b60208082528181018390526000906040808401600586901b8501820187855b88811015613dca57878303603f190184528135368b9003605e19018112613d3957600080fd5b8a01606063ffffffff613d4b836136b6565b16855261ffff613d5c8984016137ab565b168886015286820135601e19833603018112613d7757600080fd5b9091018781019190356001600160401b03811115613d9457600080fd5b803603831315613da357600080fd5b8188870152613db58287018285613ccb565b96890196955050509186019150600101613d13565b509098975050505050505050565b60008085851115613de857600080fd5b83861115613df557600080fd5b5050820193919092039150565b60008451613e1481846020890161320c565b8201838582376000930192835250909392505050565b602081526000611455602083018486613ccb565b6000823561013e19833603018112613b5157600080fd5b6001600160401b03811681146110fd57600080fd5b63ffffffff613e78896136b6565b1681526020880135602082015260006040890135613e9581613e55565b6001600160401b03811660408401525087606083015260e06080830152613ec060e083018789613ccb565b6001600160a01b03861660a084015282810360c0840152613ee2818587613ccb565b9a9950505050505050505050565b600060208284031215613f0257600080fd5b81516001600160401b03811115613f1857600080fd5b8201601f81018413613f2957600080fd5b8051613f37613312826132dd565b818152856020838501011115613f4c57600080fd5b61221982602083016020860161320c565b600060208284031215613f6f57600080fd5b8135610f7581613e55565b60018060a01b038516815283602082015261ffff831660408201526080606082015260006111ca6080830184613230565b604081526000613fbe6040830185613230565b82810360208401526122198185613230565b600060208284031215613fe257600080fd5b8151610f7581613656565b6040815263ffffffff8351166040820152602083015160608201526000604084015160a0608084015261402360e0840182613230565b90506060850151603f198483030160a08501526140408282613230565b60809690960151151560c08501525050506001600160a01b039190911660209091015290565b60006040828403121561407857600080fd5b614080613285565b9050815181526020820151602082015292915050565b6000604082840312156140a857600080fd5b610f758383614066565b6000602082840312156140c457600080fd5b5051919050565b80820260008212600160ff1b841416156140e7576140e7613a88565b8181058314821517610d8f57610d8f613a88565b818103600083128015838313168383128216171561411b5761411b613a88565b5092915050565b6001600160f01b03198135818116916002851015613ad55760029490940360031b84901b1690921692915050565b60006040828403121561416257600080fd5b61416a613285565b82358152602083013560208201528091505092915050565b80356020831015610d8f57600019602084900360031b1b1692915050565b6001600160c01b03198135818116916008851015613ad55760089490940360031b84901b1690921692915050565b6001600160401b0360c01b8560c01b16815263ffffffff60e01b8460e01b16600882015282600c8201526000825161420d81602c85016020870161320c565b91909101602c0195945050505050565b8481526001600160401b0360c01b8460c01b1660208201528260288201526000825161425081604885016020870161320c565b9190910160480195945050505050565b60006080828403121561427257600080fd5b604051606081018181106001600160401b03821117156142945761429461326f565b6040528251815260208301516142a981613e55565b60208201526142bb8460408501614066565b60408201529392505050565b81516001600160401b038111156142e0576142e061326f565b6142f4816142ee8454613a54565b84613bbc565b602080601f83116001811461432957600084156143115750858301515b600019600386901b1c1916600185901b178555613c04565b600085815260208120601f198616915b8281101561435857888601518255948401946001909101908401614339565b50858210156143765787850151600019600388901b60f8161c191681555b5050505050600190811b01905550565b60008251613b5181846020870161320c565b6000602082840312156143aa57600080fd5b8151610f758161336256fe52c63247e1f47db19d5ce0460030c497f067ca4cebf71ba98eeadabe20bace0072ab1bc1039b79dc4724ffca13de82c96834302d3c7e0d4252232d4b2dd8f900360894a13ba1a3210667c828492db98dca3e2076cc3735a920a3ca505d382bbca2646970667358221220f11a6a8fae0e7caf4b44fb83c1f7364309de6eb633aa07653251a90cf7f9945864736f6c63430008160033",
  "linkReferences": {},
  "deployedLinkReferences": {}
}