{
  "_format": "hh-sol-artifact-1",
  "contractName": "PurgeSpoke",
  "sourceName": "contracts/PurgeSpoke.sol",
  "abi": [
    {
      "inputs": [
        {
          "internalType": "address",
          "name": "_lzEndpoint",
          "type": "address"
        },
        {
          "internalType": "address",
          "name": "_delegate",
          "type": "address"
        },
        {
          "internalType": "address",
          "name": "_router",
          "type": "address"
        },
        {
          "internalType": "address",
          "name": "_usdc",
          "type": "address"
        },
        {
          "internalType": "uint32",
          "name": "_hubEid",
          "type": "uint32"
        }
      ],
      "stateMutability": "nonpayable",
      "type": "constructor"
    },
    {
      "inputs": [],
      "name": "EnforcedPause",
      "type": "error"
    },
    {
      "inputs": [],
      "name": "ExpectedPause",
      "type": "error"
    },
    {
      "inputs": [],
      "name": "InvalidDelegate",
      "type": "error"
    },
    {
      "inputs": [],
      "name": "InvalidEndpointCall",
      "type": "error"
    },
    {
      "inputs": [
        {
          "internalType": "uint16",
          "name": "optionType",
          "type": "uint16"
        }
      ],
      "name": "InvalidOptionType",
      "type": "error"
    },
    {
      "inputs": [],
      "name": "LzTokenUnavailable",
      "type": "error"
    },
    {
      "inputs": [
        {
          "internalType": "uint32",
          "name": "eid",
          "type": "uint32"
        }
      ],
      "name": "NoPeer",
      "type": "error"
    },
    {
      "inputs": [
        {
          "internalType": "uint256",
          "name": "msgValue",
          "type": "uint256"
        }
      ],
      "name": "NotEnoughNative",
      "type": "error"
    },
    {
      "inputs": [
        {
          "internalType": "uint32",
          "name": "eid",
          "type": "uint32"
        },
        {
          "internalType": "bytes32",
          "name": "sender",
          "type": "bytes32"
        }
      ],
      "name": "OnlyPeer",
      "type": "error"
    },
    {
      "inputs": [
        {
          "internalType": "address",
          "name": "owner",
          "type": "address"
        }
      ],
      "name": "OwnableInvalidOwner",
      "type": "error"
    },
    {
      "inputs": [
        {
          "internalType": "address",
          "name": "account",
          "type": "address"
        }
      ],
      "name": "OwnableUnauthorizedAccount",
      "type": "error"
    },
    {
      "inputs": [
        {
          "internalType": "uint8",
          "name": "bits",
          "type": "uint8"
        },
        {
          "internalType": "uint256",
          "name": "value",
          "type": "uint256"
        }
      ],
      "name": "SafeCastOverflowedUintDowncast",
      "type": "error"
    },
    {
      "inputs": [
        {
          "internalType": "address",
          "name": "token",
          "type": "address"
        }
      ],
      "name": "SafeERC20FailedOperation",
      "type": "error"
    },
    {
      "anonymous": false,
      "inputs": [
        {
          "indexed": true,
          "internalType": "uint32",
          "name": "newHubEid",
          "type": "uint32"
        }
      ],
      "name": "HubEidUpdated",
      "type": "event"
    },
    {
      "anonymous": false,
      "inputs": [
        {
          "indexed": true,
          "internalType": "address",
          "name": "previousOwner",
          "type": "address"
        },
        {
          "indexed": true,
          "internalType": "address",
          "name": "newOwner",
          "type": "address"
        }
      ],
      "name": "OwnershipTransferred",
      "type": "event"
    },
    {
      "anonymous": false,
      "inputs": [
        {
          "indexed": false,
          "internalType": "address",
          "name": "account",
          "type": "address"
        }
      ],
      "name": "Paused",
      "type": "event"
    },
    {
      "anonymous": false,
      "inputs": [
        {
          "indexed": false,
          "internalType": "uint32",
          "name": "eid",
          "type": "uint32"
        },
        {
          "indexed": false,
          "internalType": "bytes32",
          "name": "peer",
          "type": "bytes32"
        }
      ],
      "name": "PeerSet",
      "type": "event"
    },
    {
      "anonymous": false,
      "inputs": [
        {
          "indexed": true,
          "internalType": "address",
          "name": "user",
          "type": "address"
        },
        {
          "indexed": true,
          "internalType": "address",
          "name": "token",
          "type": "address"
        },
        {
          "indexed": false,
          "internalType": "uint256",
          "name": "tokenAmount",
          "type": "uint256"
        },
        {
          "indexed": false,
          "internalType": "uint256",
          "name": "usdcReceived",
          "type": "uint256"
        },
        {
          "indexed": false,
          "internalType": "bytes32",
          "name": "guid",
          "type": "bytes32"
        }
      ],
      "name": "PurgeInitiated",
      "type": "event"
    },
    {
      "anonymous": false,
      "inputs": [
        {
          "indexed": true,
          "internalType": "address",
          "name": "newRouter",
          "type": "address"
        }
      ],
      "name": "RouterUpdated",
      "type": "event"
    },
    {
      "anonymous": false,
      "inputs": [
        {
          "indexed": true,
          "internalType": "address",
          "name": "srcToken",
          "type": "address"
        },
        {
          "indexed": false,
          "internalType": "uint256",
          "name": "srcAmount",
          "type": "uint256"
        },
        {
          "indexed": false,
          "internalType": "uint256",
          "name": "usdcReceived",
          "type": "uint256"
        }
      ],
      "name": "SwapExecuted",
      "type": "event"
    },
    {
      "anonymous": false,
      "inputs": [
        {
          "indexed": false,
          "internalType": "address",
          "name": "account",
          "type": "address"
        }
      ],
      "name": "Unpaused",
      "type": "event"
    },
    {
      "inputs": [],
      "name": "BPS_DENOMINATOR",
      "outputs": [
        {
          "internalType": "uint256",
          "name": "",
          "type": "uint256"
        }
      ],
      "stateMutability": "view",
      "type": "function"
    },
    {
      "inputs": [],
      "name": "HUB_GAS_LIMIT",
      "outputs": [
        {
          "internalType": "uint128",
          "name": "",
          "type": "uint128"
        }
      ],
      "stateMutability": "view",
      "type": "function"
    },
    {
      "inputs": [],
      "name": "MAX_SLIPPAGE_BPS",
      "outputs": [
        {
          "internalType": "uint256",
          "name": "",
          "type": "uint256"
        }
      ],
      "stateMutability": "view",
      "type": "function"
    },
    {
      "inputs": [],
      "name": "endpoint",
      "outputs": [
        {
          "internalType": "contract ILayerZeroEndpointV2",
          "name": "",
          "type": "address"
        }
      ],
      "stateMutability": "view",
      "type": "function"
    },
    {
      "inputs": [],
      "name": "hubEid",
      "outputs": [
        {
          "internalType": "uint32",
          "name": "",
          "type": "uint32"
        }
      ],
      "stateMutability": "view",
      "type": "function"
    },
    {
      "inputs": [],
      "name": "oAppVersion",
      "outputs": [
        {
          "internalType": "uint64",
          "name": "senderVersion",
          "type": "uint64"
        },
        {
          "internalType": "uint64",
          "name": "receiverVersion",
          "type": "uint64"
        }
      ],
      "stateMutability": "pure",
      "type": "function"
    },
    {
      "inputs": [],
      "name": "owner",
      "outputs": [
        {
          "internalType": "address",
          "name": "",
          "type": "address"
        }
      ],
      "stateMutability": "view",
      "type": "function"
    },
    {
      "inputs": [],
      "name": "pause",
      "outputs": [],
      "stateMutability": "nonpayable",
      "type": "function"
    },
    {
      "inputs": [],
      "name": "paused",
      "outputs": [
        {
          "internalType": "bool",
          "name": "",
          "type": "bool"
        }
      ],
      "stateMutability": "view",
      "type": "function"
    },
    {
      "inputs": [
        {
          "internalType": "uint32",
          "name": "eid",
          "type": "uint32"
        }
      ],
      "name": "peers",
      "outputs": [
        {
          "internalType": "bytes32",
          "name": "peer",
          "type": "bytes32"
        }
      ],
      "stateMutability": "view",
      "type": "function"
    },
    {
      "inputs": [
        {
          "internalType": "address",
          "name": "_token",
          "type": "address"
        },
        {
          "internalType": "uint256",
          "name": "_amount",
          "type": "uint256"
        },
        {
          "internalType": "bytes",
          "name": "_swapData",
          "type": "bytes"
        },
        {
          "internalType": "uint256",
          "name": "_minUsdcOut",
          "type": "uint256"
        },
        {
          "internalType": "uint256",
          "name": "_expectedUsdcOut",
          "type": "uint256"
        }
      ],
      "name": "purge",
      "outputs": [],
      "stateMutability": "payable",
      "type": "function"
    },
    {
      "inputs": [
        {
          "internalType": "address",
          "name": "_user",
          "type": "address"
        },
        {
          "internalType": "uint256",
          "name": "_usdcAmount",
          "type": "uint256"
        }
      ],
      "name": "quotePurge",
      "outputs": [
        {
          "internalType": "uint256",
          "name": "nativeFee",
          "type": "uint256"
        }
      ],
      "stateMutability": "view",
      "type": "function"
    },
    {
      "inputs": [],
      "name": "renounceOwnership",
      "outputs": [],
      "stateMutability": "nonpayable",
      "type": "function"
    },
    {
      "inputs": [
        {
          "internalType": "address payable",
          "name": "_to",
          "type": "address"
        }
      ],
      "name": "rescueNative",
      "outputs": [],
      "stateMutability": "nonpayable",
      "type": "function"
    },
    {
      "inputs": [
        {
          "internalType": "address",
          "name": "_token",
          "type": "address"
        },
        {
          "internalType": "address",
          "name": "_to",
          "type": "address"
        },
        {
          "internalType": "uint256",
          "name": "_amount",
          "type": "uint256"
        }
      ],
      "name": "rescueToken",
      "outputs": [],
      "stateMutability": "nonpayable",
      "type": "function"
    },
    {
      "inputs": [],
      "name": "router",
      "outputs": [
        {
          "internalType": "address",
          "name": "",
          "type": "address"
        }
      ],
      "stateMutability": "view",
      "type": "function"
    },
    {
      "inputs": [
        {
          "internalType": "address",
          "name": "_delegate",
          "type": "address"
        }
      ],
      "name": "setDelegate",
      "outputs": [],
      "stateMutability": "nonpayable",
      "type": "function"
    },
    {
      "inputs": [
        {
          "internalType": "uint32",
          "name": "_hubEid",
          "type": "uint32"
        }
      ],
      "name": "setHubEid",
      "outputs": [],
      "stateMutability": "nonpayable",
      "type": "function"
    },
    {
      "inputs": [
        {
          "internalType": "uint32",
          "name": "_eid",
          "type": "uint32"
        },
        {
          "internalType": "bytes32",
          "name": "_peer",
          "type": "bytes32"
        }
      ],
      "name": "setPeer",
      "outputs": [],
      "stateMutability": "nonpayable",
      "type": "function"
    },
    {
      "inputs": [
        {
          "internalType": "address",
          "name": "_router",
          "type": "address"
        }
      ],
      "name": "setRouter",
      "outputs": [],
      "stateMutability": "nonpayable",
      "type": "function"
    },
    {
      "inputs": [
        {
          "internalType": "address",
          "name": "newOwner",
          "type": "address"
        }
      ],
      "name": "transferOwnership",
      "outputs": [],
      "stateMutability": "nonpayable",
      "type": "function"
    },
    {
      "inputs": [],
      "name": "unpause",
      "outputs": [],
      "stateMutability": "nonpayable",
      "type": "function"
    },
    {
      "inputs": [],
      "name": "usdc",
      "outputs": [
        {
          "internalType": "address",
          "name": "",
          "type": "address"
        }
      ],
      "stateMutability": "view",
      "type": "function"
    },
    {
      "stateMutability": "payable",
      "type": "receive"
    }
  ],
  "bytecode": "0x60a06040523480156200001157600080fd5b5060405162001c0e38038062001c0e8339810160408190526200003491620001c9565b8484806001600160a01b0381166200006657604051631e4fbdf760e01b81526000600482015260240160405180910390fd5b62000071816200015c565b506001600160a01b038083166080528116620000a057604051632d618d8160e21b815260040160405180910390fd5b60805160405163ca5eb5e160e01b81526001600160a01b0383811660048301529091169063ca5eb5e190602401600060405180830381600087803b158015620000e857600080fd5b505af1158015620000fd573d6000803e3d6000fd5b5050600280546001600160a01b0398891661010002610100600160a81b031990911617905550506003805463ffffffff909416600160a01b026001600160c01b0319909416949095169390931791909117909255506200024592505050565b600080546001600160a01b038381166001600160a01b0319831681178455604051919092169283917f8be0079c531659141344cd1fd0a4f28419497f9722a3daafe3b4186f6b6457e09190a35050565b80516001600160a01b0381168114620001c457600080fd5b919050565b600080600080600060a08688031215620001e257600080fd5b620001ed86620001ac565b9450620001fd60208701620001ac565b93506200020d60408701620001ac565b92506200021d60608701620001ac565b9150608086015163ffffffff811681146200023757600080fd5b809150509295509295909350565b60805161198a620002846000396000818161029601528181610a4901528181610eb30152818161109d0152818161136f0152611428015261198a6000f3fe6080604052600436106101445760003560e01c80638456cb59116100b6578063ca5eb5e11161006f578063ca5eb5e1146103bb578063e1a45218146103db578063e229cd76146103f1578063e5711e8b14610407578063f2fde38b14610427578063f887ea401461044757600080fd5b80638456cb59146102ed5780638da5cb5b14610302578063bb0b6a5314610320578063c0d786551461035b578063c61152ab1461037b578063c8df42301461039b57600080fd5b80633f4ba83a116101085780633f4ba83a146102135780634600f17c146102285780635c975abb146102615780635e280f1114610284578063715018a6146102b8578063775cb2ad146102cd57600080fd5b806317442b7014610150578063232fbcf914610177578063310b3b53146101a65780633400288b146101bb5780633e413bee146101db57600080fd5b3661014b57005b600080fd5b34801561015c57600080fd5b50604080516001815260006020820152015b60405180910390f35b34801561018357600080fd5b5061018e62030d4081565b6040516001600160801b03909116815260200161016e565b6101b96101b43660046114d9565b61046c565b005b3480156101c757600080fd5b506101b96101d636600461158d565b6107b5565b3480156101e757600080fd5b506003546101fb906001600160a01b031681565b6040516001600160a01b03909116815260200161016e565b34801561021f57600080fd5b506101b96107cb565b34801561023457600080fd5b5060035461024c90600160a01b900463ffffffff1681565b60405163ffffffff909116815260200161016e565b34801561026d57600080fd5b5060025460ff16604051901515815260200161016e565b34801561029057600080fd5b506101fb7f000000000000000000000000000000000000000000000000000000000000000081565b3480156102c457600080fd5b506101b96107dd565b3480156102d957600080fd5b506101b96102e83660046115b7565b6107ef565b3480156102f957600080fd5b506101b9610847565b34801561030e57600080fd5b506000546001600160a01b03166101fb565b34801561032c57600080fd5b5061034d61033b3660046115b7565b60016020526000908152604090205481565b60405190815260200161016e565b34801561036757600080fd5b506101b96103763660046115d2565b610857565b34801561038757600080fd5b5061034d6103963660046115ef565b6108f8565b3480156103a757600080fd5b506101b96103b63660046115d2565b610985565b3480156103c757600080fd5b506101b96103d63660046115d2565b610a22565b3480156103e757600080fd5b5061034d61271081565b3480156103fd57600080fd5b5061034d6103e881565b34801561041357600080fd5b506101b961042236600461160d565b610aa8565b34801561043357600080fd5b506101b96104423660046115d2565b610ac9565b34801561045357600080fd5b506002546101fb9061010090046001600160a01b031681565b610474610b07565b60006127106104856103e882611664565b61048f9084611677565b610499919061168e565b9050808310156104f05760405162461bcd60e51b815260206004820152601b60248201527f536c69707061676520746f6c6572616e636520746f6f2068696768000000000060448201526064015b60405180910390fd5b6105056001600160a01b038816333089610b2b565b600254610524906001600160a01b038981169161010090041688610b98565b6003546040516370a0823160e01b81523060048201526000916001600160a01b0316906370a0823190602401602060405180830381865afa15801561056d573d6000803e3d6000fd5b505050506040513d601f19601f8201168201806040525081019061059191906116b0565b90506000600260019054906101000a90046001600160a01b03166001600160a01b031687876040516105c49291906116c9565b6000604051808303816000865af19150503d8060008114610601576040519150601f19603f3d011682016040523d82523d6000602084013e610606565b606091505b50509050806106455760405162461bcd60e51b815260206004820152600b60248201526a14ddd85c0819985a5b195960aa1b60448201526064016104e7565b6003546040516370a0823160e01b81523060048201526000916001600160a01b0316906370a0823190602401602060405180830381865afa15801561068e573d6000803e3d6000fd5b505050506040513d601f19601f820116820180604052508101906106b291906116b0565b905060006106c08483611664565b9050868110156107065760405162461bcd60e51b815260206004820152601160248201527014db1a5c1c1859d948195e18d959591959607a1b60448201526064016104e7565b604080518b8152602081018390526001600160a01b038d16917f2d043ce009ff53fd444b0f4f5ff4c3f4ee293265203f77f156eeb33b595dfc4f910160405180910390a260006107563383610c28565b604080518d8152602081018590529081018290529091506001600160a01b038d169033907f841b5f3a06b9d5899f6d7a7e9fdf52ca6dc0611e68ae301a29c61f66f25367199060600160405180910390a3505050505050505050505050565b6107bd610cd4565b6107c78282610d01565b5050565b6107d3610cd4565b6107db610d56565b565b6107e5610cd4565b6107db6000610da8565b6107f7610cd4565b6003805463ffffffff60a01b1916600160a01b63ffffffff8416908102919091179091556040517fe650eee19241bbaf0f15f09c16816cb810fb46cf3c403548b38b5dd00525cc5490600090a250565b61084f610cd4565b6107db610df8565b61085f610cd4565b6001600160a01b0381166108a65760405162461bcd60e51b815260206004820152600e60248201526d24b73b30b634b2103937baba32b960911b60448201526064016104e7565b60028054610100600160a81b0319166101006001600160a01b038416908102919091179091556040517f7aed1d3e8155a07ccf395e44ea3109a0e2d6c9b29bbbe9f142d9790596f4dc8090600090a250565b604080516001600160a01b0384166020820152808201839052815180820383018152606082018352600360f01b60808301528251606281840301815260829092019092526000919082906109559062030d409083905b9190610e35565b90506000610978600360149054906101000a900463ffffffff1684846000610e9d565b5193505050505b92915050565b61098d610cd4565b6000816001600160a01b03164760405160006040518083038185875af1925050503d80600081146109da576040519150601f19603f3d011682016040523d82523d6000602084013e6109df565b606091505b50509050806107c75760405162461bcd60e51b815260206004820152600f60248201526e151c985b9cd9995c8819985a5b1959608a1b60448201526064016104e7565b610a2a610cd4565b60405163ca5eb5e160e01b81526001600160a01b0382811660048301527f0000000000000000000000000000000000000000000000000000000000000000169063ca5eb5e190602401600060405180830381600087803b158015610a8d57600080fd5b505af1158015610aa1573d6000803e3d6000fd5b5050505050565b610ab0610cd4565b610ac46001600160a01b0384168383610f7e565b505050565b610ad1610cd4565b6001600160a01b038116610afb57604051631e4fbdf760e01b8152600060048201526024016104e7565b610b0481610da8565b50565b60025460ff16156107db5760405163d93c066560e01b815260040160405180910390fd5b6040516001600160a01b038481166024830152838116604483015260648201839052610b929186918216906323b872dd906084015b604051602081830303815290604052915060e01b6020820180516001600160e01b038381831617835250505050610faf565b50505050565b604080516001600160a01b038416602482015260448082018490528251808303909101815260649091019091526020810180516001600160e01b031663095ea7b360e01b179052610be98482611020565b610b92576040516001600160a01b03848116602483015260006044830152610c1e91869182169063095ea7b390606401610b60565b610b928482610faf565b604080516001600160a01b0384166020820152808201839052815180820383018152606082018352600360f01b6080830152825160628184030181526082909201909252600091908290610c829062030d4090839061094e565b90506000610ca5600360149054906101000a900463ffffffff1684846000610e9d565b90506000610cc8600360149054906101000a900463ffffffff168585853361106a565b51979650505050505050565b6000546001600160a01b031633146107db5760405163118cdaa760e01b81523360048201526024016104e7565b63ffffffff8216600081815260016020908152604091829020849055815192835282018390527f238399d427b947898edb290f5ff0f9109849b1c3ba196a42e35f00c50a54b98b910160405180910390a15050565b610d5e611175565b6002805460ff191690557f5db9ee0a495bf2e6ff9c91a7834c1ba4fdd244a5e8aa4e537bd38aeae4b073aa335b6040516001600160a01b03909116815260200160405180910390a1565b600080546001600160a01b038381166001600160a01b0319831681178455604051919092169283917f8be0079c531659141344cd1fd0a4f28419497f9722a3daafe3b4186f6b6457e09190a35050565b610e00610b07565b6002805460ff191660011790557f62e78cea01bee320cd4e420270b5ea74000d11b0c9f74754ebdbfc544b05a258610d8b3390565b6060836003610e45826000611198565b61ffff1614610e7957610e59816000611198565b604051633a51740d60e01b815261ffff90911660048201526024016104e7565b6000610e8585856111f5565b9050610e938660018361126e565b9695505050505050565b60408051808201909152600080825260208201527f00000000000000000000000000000000000000000000000000000000000000006001600160a01b031663ddc28c586040518060a001604052808863ffffffff168152602001610f00896112d9565b8152602001878152602001868152602001851515815250306040518363ffffffff1660e01b8152600401610f35929190611729565b6040805180830381865afa158015610f51573d6000803e3d6000fd5b505050506040513d601f19601f82011682018060405250810190610f7591906117ff565b95945050505050565b6040516001600160a01b03838116602483015260448201839052610ac491859182169063a9059cbb90606401610b60565b600080602060008451602086016000885af180610fd2576040513d6000823e3d81fd5b50506000513d91508115610fea578060011415610ff7565b6001600160a01b0384163b155b15610b9257604051635274afe760e01b81526001600160a01b03851660048201526024016104e7565b6000806000806020600086516020880160008a5af192503d91506000519050828015610e93575081156110565780600114610e93565b50505050506001600160a01b03163b151590565b61107261147c565b60006110818460000151611315565b60208501519091501561109b5761109b846020015161136b565b7f00000000000000000000000000000000000000000000000000000000000000006001600160a01b0316632637a450826040518060a001604052808b63ffffffff1681526020016110eb8c6112d9565b81526020018a815260200189815260200160008960200151111515815250866040518463ffffffff1660e01b8152600401611127929190611729565b60806040518083038185885af1158015611145573d6000803e3d6000fd5b50505050506040513d601f19601f8201168201806040525081019061116a919061181b565b979650505050505050565b60025460ff166107db57604051638dfc202b60e01b815260040160405180910390fd5b60006111a582600261189b565b835110156111ec5760405162461bcd60e51b8152602060048201526014602482015273746f55696e7431365f6f75744f66426f756e647360601b60448201526064016104e7565b50016002015190565b60606001600160801b0382161561123d57604080516001600160801b0319608086811b8216602084015285901b16603082015201604051602081830303815290604052611267565b6040516001600160801b0319608085901b1660208201526030016040516020818303038152906040525b9392505050565b606083600361127e826000611198565b61ffff161461129257610e59816000611198565b84600161129f855161144d565b6112aa9060016118ae565b86866040516020016112c09594939291906118d0565b6040516020818303038152906040529150509392505050565b63ffffffff81166000908152600160205260408120548061097f5760405163f6ff4fb760e01b815263ffffffff841660048201526024016104e7565b6000813410156113675760405162461bcd60e51b815260206004820152601760248201527f496e73756666696369656e74206e61746976652066656500000000000000000060448201526064016104e7565b5090565b60007f00000000000000000000000000000000000000000000000000000000000000006001600160a01b031663e4fe1d946040518163ffffffff1660e01b8152600401602060405180830381865afa1580156113cb573d6000803e3d6000fd5b505050506040513d601f19601f820116820180604052508101906113ef9190611937565b90506001600160a01b038116611418576040516329b99a9560e11b815260040160405180910390fd5b6107c76001600160a01b038216337f000000000000000000000000000000000000000000000000000000000000000085610b2b565b600061ffff821115611367576040516306dfcc6560e41b815260106004820152602481018390526044016104e7565b604051806060016040528060008019168152602001600067ffffffffffffffff1681526020016114bf604051806040016040528060008152602001600081525090565b905290565b6001600160a01b0381168114610b0457600080fd5b60008060008060008060a087890312156114f257600080fd5b86356114fd816114c4565b955060208701359450604087013567ffffffffffffffff8082111561152157600080fd5b818901915089601f83011261153557600080fd5b81358181111561154457600080fd5b8a602082850101111561155657600080fd5b979a9699505060200196606081013595608090910135945092505050565b803563ffffffff8116811461158857600080fd5b919050565b600080604083850312156115a057600080fd5b6115a983611574565b946020939093013593505050565b6000602082840312156115c957600080fd5b61126782611574565b6000602082840312156115e457600080fd5b8135611267816114c4565b6000806040838503121561160257600080fd5b82356115a9816114c4565b60008060006060848603121561162257600080fd5b833561162d816114c4565b9250602084013561163d816114c4565b929592945050506040919091013590565b634e487b7160e01b600052601160045260246000fd5b8181038181111561097f5761097f61164e565b808202811582820484141761097f5761097f61164e565b6000826116ab57634e487b7160e01b600052601260045260246000fd5b500490565b6000602082840312156116c257600080fd5b5051919050565b8183823760009101908152919050565b60005b838110156116f45781810151838201526020016116dc565b50506000910152565b600081518084526117158160208601602086016116d9565b601f01601f19169290920160200192915050565b6040815263ffffffff8351166040820152602083015160608201526000604084015160a0608084015261175f60e08401826116fd565b90506060850151603f198483030160a085015261177c82826116fd565b60809690960151151560c08501525050506001600160a01b039190911660209091015290565b6000604082840312156117b457600080fd5b6040516040810181811067ffffffffffffffff821117156117e557634e487b7160e01b600052604160045260246000fd5b604052825181526020928301519281019290925250919050565b60006040828403121561181157600080fd5b61126783836117a2565b60006080828403121561182d57600080fd5b6040516060810167ffffffffffffffff828210818311171561185f57634e487b7160e01b600052604160045260246000fd5b816040528451835260208501519150808216821461187c57600080fd5b50602082015261188f84604085016117a2565b60408201529392505050565b8082018082111561097f5761097f61164e565b61ffff8181168382160190808211156118c9576118c961164e565b5092915050565b600086516118e2818460208b016116d9565b6001600160f81b031960f888811b82169285019283526001600160f01b031960f089901b16600184015286901b16600382015283516119288160048401602088016116d9565b01600401979650505050505050565b60006020828403121561194957600080fd5b8151611267816114c456fea26469706673582212209a07fd2c37d83bc498c556c5797b40a1b0aa8856868b3c89705a37e7b39770de64736f6c63430008160033",
  "linkReferences": {},
  "deployedLinkReferences": {}
}