{
  "_format": "hh-sol-artifact-1",
  "contractName": "PurgeHub",
  "sourceName": "contracts/PurgeHub.sol",
  "abi": [
    {
      "inputs": [
        {
          "internalType": "address",
          "name": "_lzEndpoint",
          "type": "address"
        }
      ],
      "stateMutability": "nonpayable",
      "type": "constructor"
    },
    {
      "inputs": [
        {
          "internalType": "address",
          "name": "target",
          "type": "address"
        }
      ],
      "name": "AddressEmptyCode",
      "type": "error"
    },
    {
      "inputs": [
        {
          "internalType": "address",
          "name": "implementation",
          "type": "address"
        }
      ],
      "name": "ERC1967InvalidImplementation",
      "type": "error"
    },
    {
      "inputs": [],
      "name": "ERC1967NonPayable",
      "type": "error"
    },
    {
      "inputs": [],
      "name": "FailedCall",
      "type": "error"
    },
    {
      "inputs": [],
      "name": "InvalidDelegate",
      "type": "error"
    },
    {
      "inputs": [],
      "name": "InvalidEndpointCall",
      "type": "error"
    },
    {
      "inputs": [],
      "name": "InvalidInitialization",
      "type": "error"
    },
    {
      "inputs": [
        {
          "internalType": "uint32",
          "name": "eid",
          "type": "uint32"
        }
      ],
      "name": "NoPeer",
      "type": "error"
    },
    {
      "inputs": [],
      "name": "NotInitializing",
      "type": "error"
    },
    {
      "inputs": [
        {
          "internalType": "address",
          "name": "addr",
          "type": "address"
        }
      ],
      "name": "OnlyEndpoint",
      "type": "error"
    },
    {
      "inputs": [
        {
          "internalType": "uint32",
          "name": "eid",
          "type": "uint32"
        },
        {
          "internalType": "bytes32",
          "name": "sender",
          "type": "bytes32"
        }
      ],
      "name": "OnlyPeer",
      "type": "error"
    },
    {
      "inputs": [
        {
          "internalType": "address",
          "name": "owner",
          "type": "address"
        }
      ],
      "name": "OwnableInvalidOwner",
      "type": "error"
    },
    {
      "inputs": [
        {
          "internalType": "address",
          "name": "account",
          "type": "address"
        }
      ],
      "name": "OwnableUnauthorizedAccount",
      "type": "error"
    },
    {
      "inputs": [],
      "name": "UUPSUnauthorizedCallContext",
      "type": "error"
    },
    {
      "inputs": [
        {
          "internalType": "bytes32",
          "name": "slot",
          "type": "bytes32"
        }
      ],
      "name": "UUPSUnsupportedProxiableUUID",
      "type": "error"
    },
    {
      "anonymous": false,
      "inputs": [
        {
          "indexed": false,
          "internalType": "uint64",
          "name": "version",
          "type": "uint64"
        }
      ],
      "name": "Initialized",
      "type": "event"
    },
    {
      "anonymous": false,
      "inputs": [
        {
          "indexed": true,
          "internalType": "address",
          "name": "previousOwner",
          "type": "address"
        },
        {
          "indexed": true,
          "internalType": "address",
          "name": "newOwner",
          "type": "address"
        }
      ],
      "name": "OwnershipTransferred",
      "type": "event"
    },
    {
      "anonymous": false,
      "inputs": [
        {
          "indexed": false,
          "internalType": "uint32",
          "name": "eid",
          "type": "uint32"
        },
        {
          "indexed": false,
          "internalType": "bytes32",
          "name": "peer",
          "type": "bytes32"
        }
      ],
      "name": "PeerSet",
      "type": "event"
    },
    {
      "anonymous": false,
      "inputs": [
        {
          "indexed": true,
          "internalType": "address",
          "name": "user",
          "type": "address"
        },
        {
          "indexed": true,
          "internalType": "uint32",
          "name": "srcEid",
          "type": "uint32"
        },
        {
          "indexed": false,
          "internalType": "uint256",
          "name": "totalAmount",
          "type": "uint256"
        },
        {
          "indexed": false,
          "internalType": "uint256",
          "name": "userAmount",
          "type": "uint256"
        }
      ],
      "name": "PurgeProcessed",
      "type": "event"
    },
    {
      "anonymous": false,
      "inputs": [
        {
          "indexed": true,
          "internalType": "uint32",
          "name": "srcEid",
          "type": "uint32"
        },
        {
          "indexed": false,
          "internalType": "bool",
          "name": "allowed",
          "type": "bool"
        }
      ],
      "name": "SpokeAuthorized",
      "type": "event"
    },
    {
      "anonymous": false,
      "inputs": [
        {
          "indexed": false,
          "internalType": "uint256",
          "name": "lp",
          "type": "uint256"
        },
        {
          "indexed": false,
          "internalType": "uint256",
          "name": "reflect",
          "type": "uint256"
        },
        {
          "indexed": false,
          "internalType": "uint256",
          "name": "treasury",
          "type": "uint256"
        },
        {
          "indexed": false,
          "internalType": "uint256",
          "name": "burn",
          "type": "uint256"
        }
      ],
      "name": "TaxDistributed",
      "type": "event"
    },
    {
      "anonymous": false,
      "inputs": [
        {
          "indexed": true,
          "internalType": "address",
          "name": "implementation",
          "type": "address"
        }
      ],
      "name": "Upgraded",
      "type": "event"
    },
    {
      "anonymous": false,
      "inputs": [
        {
          "indexed": true,
          "internalType": "address",
          "name": "lp",
          "type": "address"
        },
        {
          "indexed": true,
          "internalType": "address",
          "name": "treasury",
          "type": "address"
        }
      ],
      "name": "WalletsUpdated",
      "type": "event"
    },
    {
      "inputs": [],
      "name": "BPS_DENOMINATOR",
      "outputs": [
        {
          "internalType": "uint256",
          "name": "",
          "type": "uint256"
        }
      ],
      "stateMutability": "view",
      "type": "function"
    },
    {
      "inputs": [],
      "name": "DEAD_ADDRESS",
      "outputs": [
        {
          "internalType": "address",
          "name": "",
          "type": "address"
        }
      ],
      "stateMutability": "view",
      "type": "function"
    },
    {
      "inputs": [],
      "name": "UPGRADE_INTERFACE_VERSION",
      "outputs": [
        {
          "internalType": "string",
          "name": "",
          "type": "string"
        }
      ],
      "stateMutability": "view",
      "type": "function"
    },
    {
      "inputs": [
        {
          "components": [
            {
              "internalType": "uint32",
              "name": "srcEid",
              "type": "uint32"
            },
            {
              "internalType": "bytes32",
              "name": "sender",
              "type": "bytes32"
            },
            {
              "internalType": "uint64",
              "name": "nonce",
              "type": "uint64"
            }
          ],
          "internalType": "struct Origin",
          "name": "origin",
          "type": "tuple"
        }
      ],
      "name": "allowInitializePath",
      "outputs": [
        {
          "internalType": "bool",
          "name": "",
          "type": "bool"
        }
      ],
      "stateMutability": "view",
      "type": "function"
    },
    {
      "inputs": [
        {
          "internalType": "uint32",
          "name": "",
          "type": "uint32"
        }
      ],
      "name": "allowedSpokeEids",
      "outputs": [
        {
          "internalType": "bool",
          "name": "",
          "type": "bool"
        }
      ],
      "stateMutability": "view",
      "type": "function"
    },
    {
      "inputs": [],
      "name": "endpoint",
      "outputs": [
        {
          "internalType": "contract ILayerZeroEndpointV2",
          "name": "",
          "type": "address"
        }
      ],
      "stateMutability": "view",
      "type": "function"
    },
    {
      "inputs": [
        {
          "internalType": "address",
          "name": "_delegate",
          "type": "address"
        },
        {
          "internalType": "address",
          "name": "_purgeToken",
          "type": "address"
        },
        {
          "internalType": "address",
          "name": "_treasury",
          "type": "address"
        },
        {
          "internalType": "address",
          "name": "_lpWallet",
          "type": "address"
        },
        {
          "internalType": "uint32",
          "name": "_reserveRatio",
          "type": "uint32"
        },
        {
          "internalType": "uint256",
          "name": "_initialReserve",
          "type": "uint256"
        }
      ],
      "name": "initialize",
      "outputs": [],
      "stateMutability": "nonpayable",
      "type": "function"
    },
    {
      "inputs": [
        {
          "components": [
            {
              "internalType": "uint32",
              "name": "srcEid",
              "type": "uint32"
            },
            {
              "internalType": "bytes32",
              "name": "sender",
              "type": "bytes32"
            },
            {
              "internalType": "uint64",
              "name": "nonce",
              "type": "uint64"
            }
          ],
          "internalType": "struct Origin",
          "name": "",
          "type": "tuple"
        },
        {
          "internalType": "bytes",
          "name": "",
          "type": "bytes"
        },
        {
          "internalType": "address",
          "name": "_sender",
          "type": "address"
        }
      ],
      "name": "isComposeMsgSender",
      "outputs": [
        {
          "internalType": "bool",
          "name": "",
          "type": "bool"
        }
      ],
      "stateMutability": "view",
      "type": "function"
    },
    {
      "inputs": [],
      "name": "lpWallet",
      "outputs": [
        {
          "internalType": "address",
          "name": "",
          "type": "address"
        }
      ],
      "stateMutability": "view",
      "type": "function"
    },
    {
      "inputs": [
        {
          "components": [
            {
              "internalType": "uint32",
              "name": "srcEid",
              "type": "uint32"
            },
            {
              "internalType": "bytes32",
              "name": "sender",
              "type": "bytes32"
            },
            {
              "internalType": "uint64",
              "name": "nonce",
              "type": "uint64"
            }
          ],
          "internalType": "struct Origin",
          "name": "_origin",
          "type": "tuple"
        },
        {
          "internalType": "bytes32",
          "name": "_guid",
          "type": "bytes32"
        },
        {
          "internalType": "bytes",
          "name": "_message",
          "type": "bytes"
        },
        {
          "internalType": "address",
          "name": "_executor",
          "type": "address"
        },
        {
          "internalType": "bytes",
          "name": "_extraData",
          "type": "bytes"
        }
      ],
      "name": "lzReceive",
      "outputs": [],
      "stateMutability": "payable",
      "type": "function"
    },
    {
      "inputs": [
        {
          "internalType": "uint32",
          "name": "",
          "type": "uint32"
        },
        {
          "internalType": "bytes32",
          "name": "",
          "type": "bytes32"
        }
      ],
      "name": "nextNonce",
      "outputs": [
        {
          "internalType": "uint64",
          "name": "nonce",
          "type": "uint64"
        }
      ],
      "stateMutability": "view",
      "type": "function"
    },
    {
      "inputs": [],
      "name": "oAppVersion",
      "outputs": [
        {
          "internalType": "uint64",
          "name": "senderVersion",
          "type": "uint64"
        },
        {
          "internalType": "uint64",
          "name": "receiverVersion",
          "type": "uint64"
        }
      ],
      "stateMutability": "pure",
      "type": "function"
    },
    {
      "inputs": [],
      "name": "openTheGates",
      "outputs": [],
      "stateMutability": "nonpayable",
      "type": "function"
    },
    {
      "inputs": [],
      "name": "owner",
      "outputs": [
        {
          "internalType": "address",
          "name": "",
          "type": "address"
        }
      ],
      "stateMutability": "view",
      "type": "function"
    },
    {
      "inputs": [
        {
          "internalType": "uint32",
          "name": "_eid",
          "type": "uint32"
        }
      ],
      "name": "peers",
      "outputs": [
        {
          "internalType": "bytes32",
          "name": "",
          "type": "bytes32"
        }
      ],
      "stateMutability": "view",
      "type": "function"
    },
    {
      "inputs": [],
      "name": "proxiableUUID",
      "outputs": [
        {
          "internalType": "bytes32",
          "name": "",
          "type": "bytes32"
        }
      ],
      "stateMutability": "view",
      "type": "function"
    },
    {
      "inputs": [],
      "name": "purgeToken",
      "outputs": [
        {
          "internalType": "contract PurgeToken",
          "name": "",
          "type": "address"
        }
      ],
      "stateMutability": "view",
      "type": "function"
    },
    {
      "inputs": [],
      "name": "ratioGlobal",
      "outputs": [
        {
          "internalType": "uint256",
          "name": "",
          "type": "uint256"
        }
      ],
      "stateMutability": "view",
      "type": "function"
    },
    {
      "inputs": [],
      "name": "ratioSeniority",
      "outputs": [
        {
          "internalType": "uint256",
          "name": "",
          "type": "uint256"
        }
      ],
      "stateMutability": "view",
      "type": "function"
    },
    {
      "inputs": [
        {
          "internalType": "uint32",
          "name": "_srcEid",
          "type": "uint32"
        },
        {
          "internalType": "bytes32",
          "name": "",
          "type": "bytes32"
        },
        {
          "internalType": "address",
          "name": "_recipient",
          "type": "address"
        },
        {
          "internalType": "uint256",
          "name": "_amount",
          "type": "uint256"
        },
        {
          "internalType": "uint64",
          "name": "",
          "type": "uint64"
        }
      ],
      "name": "receivePurge",
      "outputs": [],
      "stateMutability": "nonpayable",
      "type": "function"
    },
    {
      "inputs": [],
      "name": "renounceOwnership",
      "outputs": [],
      "stateMutability": "nonpayable",
      "type": "function"
    },
    {
      "inputs": [],
      "name": "reserveBalance",
      "outputs": [
        {
          "internalType": "uint256",
          "name": "",
          "type": "uint256"
        }
      ],
      "stateMutability": "view",
      "type": "function"
    },
    {
      "inputs": [],
      "name": "reserveRatio",
      "outputs": [
        {
          "internalType": "uint32",
          "name": "",
          "type": "uint32"
        }
      ],
      "stateMutability": "view",
      "type": "function"
    },
    {
      "inputs": [
        {
          "internalType": "uint256",
          "name": "_initialSupply",
          "type": "uint256"
        },
        {
          "internalType": "uint256",
          "name": "_virtualReserve",
          "type": "uint256"
        }
      ],
      "name": "seedInitialization",
      "outputs": [],
      "stateMutability": "nonpayable",
      "type": "function"
    },
    {
      "inputs": [
        {
          "internalType": "address",
          "name": "_delegate",
          "type": "address"
        }
      ],
      "name": "setDelegate",
      "outputs": [],
      "stateMutability": "nonpayable",
      "type": "function"
    },
    {
      "inputs": [
        {
          "internalType": "uint256",
          "name": "_seniority",
          "type": "uint256"
        },
        {
          "internalType": "uint256",
          "name": "_global",
          "type": "uint256"
        }
      ],
      "name": "setHybridRatios",
      "outputs": [],
      "stateMutability": "nonpayable",
      "type": "function"
    },
    {
      "inputs": [
        {
          "internalType": "uint32",
          "name": "_eid",
          "type": "uint32"
        },
        {
          "internalType": "bytes32",
          "name": "_peer",
          "type": "bytes32"
        }
      ],
      "name": "setPeer",
      "outputs": [],
      "stateMutability": "nonpayable",
      "type": "function"
    },
    {
      "inputs": [
        {
          "internalType": "uint32",
          "name": "_newRatio",
          "type": "uint32"
        }
      ],
      "name": "setReserveRatio",
      "outputs": [],
      "stateMutability": "nonpayable",
      "type": "function"
    },
    {
      "inputs": [
        {
          "internalType": "uint32",
          "name": "_srcEid",
          "type": "uint32"
        },
        {
          "internalType": "bool",
          "name": "_allowed",
          "type": "bool"
        }
      ],
      "name": "setSpokeStatus",
      "outputs": [],
      "stateMutability": "nonpayable",
      "type": "function"
    },
    {
      "inputs": [
        {
          "internalType": "uint256",
          "name": "_lp",
          "type": "uint256"
        },
        {
          "internalType": "uint256",
          "name": "_treasury",
          "type": "uint256"
        },
        {
          "internalType": "uint256",
          "name": "_burn",
          "type": "uint256"
        },
        {
          "internalType": "uint256",
          "name": "_reflect",
          "type": "uint256"
        }
      ],
      "name": "setTaxAllocations",
      "outputs": [],
      "stateMutability": "nonpayable",
      "type": "function"
    },
    {
      "inputs": [
        {
          "internalType": "address",
          "name": "_lpWallet",
          "type": "address"
        },
        {
          "internalType": "address",
          "name": "_treasury",
          "type": "address"
        }
      ],
      "name": "setWallets",
      "outputs": [],
      "stateMutability": "nonpayable",
      "type": "function"
    },
    {
      "inputs": [],
      "name": "taxBpBurn",
      "outputs": [
        {
          "internalType": "uint256",
          "name": "",
          "type": "uint256"
        }
      ],
      "stateMutability": "view",
      "type": "function"
    },
    {
      "inputs": [],
      "name": "taxBpLP",
      "outputs": [
        {
          "internalType": "uint256",
          "name": "",
          "type": "uint256"
        }
      ],
      "stateMutability": "view",
      "type": "function"
    },
    {
      "inputs": [],
      "name": "taxBpReflect",
      "outputs": [
        {
          "internalType": "uint256",
          "name": "",
          "type": "uint256"
        }
      ],
      "stateMutability": "view",
      "type": "function"
    },
    {
      "inputs": [],
      "name": "taxBpTreasury",
      "outputs": [
        {
          "internalType": "uint256",
          "name": "",
          "type": "uint256"
        }
      ],
      "stateMutability": "view",
      "type": "function"
    },
    {
      "inputs": [
        {
          "internalType": "address",
          "name": "newOwner",
          "type": "address"
        }
      ],
      "name": "transferOwnership",
      "outputs": [],
      "stateMutability": "nonpayable",
      "type": "function"
    },
    {
      "inputs": [],
      "name": "treasury",
      "outputs": [
        {
          "internalType": "address",
          "name": "",
          "type": "address"
        }
      ],
      "stateMutability": "view",
      "type": "function"
    },
    {
      "inputs": [
        {
          "internalType": "address",
          "name": "newImplementation",
          "type": "address"
        },
        {
          "internalType": "bytes",
          "name": "data",
          "type": "bytes"
        }
      ],
      "name": "upgradeToAndCall",
      "outputs": [],
      "stateMutability": "payable",
      "type": "function"
    },
    {
      "inputs": [
        {
          "internalType": "address",
          "name": "_to",
          "type": "address"
        },
        {
          "internalType": "uint256",
          "name": "_amount",
          "type": "uint256"
        }
      ],
      "name": "withdrawReflections",
      "outputs": [],
      "stateMutability": "nonpayable",
      "type": "function"
    }
  ],
  "bytecode": "0x60c06040523060a05261012c6005556064600655603260075560966008556113886009819055600a553480156200003557600080fd5b5060405162002e1338038062002e1383398101604081905262000058916200012a565b6001600160a01b0381166080526200006f62000076565b506200015c565b7ff0c57e16840df040f15088dc2f81fe391c3923bec73e23a9662efc9c229c6a00805468010000000000000000900460ff1615620000c75760405163f92ee8a960e01b815260040160405180910390fd5b80546001600160401b0390811614620001275780546001600160401b0319166001600160401b0390811782556040519081527fc7f505b2f371ae2175ee4913f4499e1f2633a7b5936321eed1cdaeb6115181d29060200160405180910390a15b50565b6000602082840312156200013d57600080fd5b81516001600160a01b03811681146200015557600080fd5b9392505050565b60805160a051612c756200019e60003960008181611297015281816112c001526114010152600081816103af0152818161077d0152610ec70152612c756000f3fe6080604052600436106102305760003560e01c80638b674dd71161012e578063c844bea1116100ab578063e1a452181161006f578063e1a45218146106ef578063e892529f14610705578063f2fde38b14610725578063f3ef623814610745578063ff7bd03d1461075b57600080fd5b8063c844bea114610659578063ca5eb5e114610679578063d3f6a15714610699578063d71eb4b5146106b9578063df2628aa146106d957600080fd5b8063ad3cb1cc116100f2578063ad3cb1cc14610569578063ada1388c146105a7578063b65e773c146105c7578063bb0b6a53146105e7578063c307ecad1461063957600080fd5b80638b674dd7146104ca5780638da5cb5b146104ea5780639157269014610527578063a10954fe1461053d578063ac9c01d81461055357600080fd5b80635c797107116101bc57806379113ca41161018057806379113ca4146104265780637bbdad11146104465780637d25a05e1461045b578063818865841461049457806382413eac146104aa57600080fd5b80635c797107146103875780635e280f111461039d57806361d027b3146103d15780636303516c146103f1578063715018a61461041157600080fd5b80633400288b116102035780633400288b146102e357806349930759146103035780634e6fd6c41461033b5780634f1ef2861461035157806352d1902d1461036457600080fd5b8063087073d6146102355780630c7d5cd81461027a57806313137d65146102ac57806317442b70146102c1575b600080fd5b34801561024157600080fd5b5061026561025036600461258d565b600b6020526000908152604090205460ff1681565b60405190151581526020015b60405180910390f35b34801561028657600080fd5b506004546102979063ffffffff1681565b60405163ffffffff9091168152602001610271565b6102bf6102ba36600461261e565b61077b565b005b3480156102cd57600080fd5b5060408051600081526002602082015201610271565b3480156102ef57600080fd5b506102bf6102fe3660046126be565b61083b565b34801561030f57600080fd5b50600054610323906001600160a01b031681565b6040516001600160a01b039091168152602001610271565b34801561034757600080fd5b5061032361dead81565b6102bf61035f3660046126fe565b6108ba565b34801561037057600080fd5b506103796108d9565b604051908152602001610271565b34801561039357600080fd5b5061037960075481565b3480156103a957600080fd5b506103237f000000000000000000000000000000000000000000000000000000000000000081565b3480156103dd57600080fd5b50600154610323906001600160a01b031681565b3480156103fd57600080fd5b50600254610323906001600160a01b031681565b34801561041d57600080fd5b506102bf6108f6565b34801561043257600080fd5b506102bf6104413660046127d0565b61090a565b34801561045257600080fd5b506102bf61096e565b34801561046757600080fd5b5061047b6104763660046126be565b6109d1565b60405167ffffffffffffffff9091168152602001610271565b3480156104a057600080fd5b5061037960055481565b3480156104b657600080fd5b506102656104c5366004612807565b6109da565b3480156104d657600080fd5b506102bf6104e536600461286e565b6109ef565b3480156104f657600080fd5b507f9016d09d72d40fdae2fd8ceac6b6234c7706214fd39c1cd1e609a0528c199300546001600160a01b0316610323565b34801561053357600080fd5b5061037960085481565b34801561054957600080fd5b5061037960035481565b34801561055f57600080fd5b5061037960095481565b34801561057557600080fd5b5061059a604051806040016040528060058152602001640352e302e360dc1b81525081565b6040516102719190612907565b3480156105b357600080fd5b506102bf6105c236600461293a565b610b59565b3480156105d357600080fd5b506102bf6105e23660046129a4565b610bcd565b3480156105f357600080fd5b5061037961060236600461258d565b63ffffffff1660009081527f72ab1bc1039b79dc4724ffca13de82c96834302d3c7e0d4252232d4b2dd8f900602052604090205490565b34801561064557600080fd5b506102bf61065436600461258d565b610d48565b34801561066557600080fd5b506102bf6106743660046129c6565b610d6c565b34801561068557600080fd5b506102bf6106943660046129e4565b610ea0565b3480156106a557600080fd5b506102bf6106b4366004612a01565b610f1f565b3480156106c557600080fd5b506102bf6106d4366004612a2f565b610fe3565b3480156106e557600080fd5b5061037960065481565b3480156106fb57600080fd5b5061037961271081565b34801561071157600080fd5b506102bf6107203660046129a4565b611070565b34801561073157600080fd5b506102bf6107403660046129e4565b6110cf565b34801561075157600080fd5b50610379600a5481565b34801561076757600080fd5b50610265610776366004612a61565b61110d565b7f00000000000000000000000000000000000000000000000000000000000000006001600160a01b031633146107cb576040516391ac5e4f60e01b81523360048201526024015b60405180910390fd5b602087018035906107e5906107e0908a61258d565b61112b565b14610823576107f7602088018861258d565b60405163309afaf360e21b815263ffffffff9091166004820152602088013560248201526044016107c2565b6108328787878787878761118f565b50505050505050565b610843611231565b63ffffffff821660008181527f72ab1bc1039b79dc4724ffca13de82c96834302d3c7e0d4252232d4b2dd8f900602081815260409283902085905582519384528301849052815190927f238399d427b947898edb290f5ff0f9109849b1c3ba196a42e35f00c50a54b98b92908290030190a1505050565b6108c261128c565b6108cb82611331565b6108d58282611339565b5050565b60006108e36113f6565b50600080516020612c2083398151915290565b6108fe611231565b610908600061143f565b565b610912611231565b63ffffffff82166000818152600b6020908152604091829020805460ff191685151590811790915591519182527f0f35e34523547184dcf6ff91e29d550b4fbdb5f8dd9a77bd6890b2507e8215ec910160405180910390a25050565b610976611231565b6000805460408051637bbdad1160e01b815290516001600160a01b0390921692637bbdad119260048084019382900301818387803b1580156109b757600080fd5b505af11580156109cb573d6000803e3d6000fd5b50505050565b60005b92915050565b6001600160a01b03811630145b949350505050565b60006109f96114b0565b805490915060ff600160401b820416159067ffffffffffffffff16600081158015610a215750825b905060008267ffffffffffffffff166001148015610a3e5750303b155b905081158015610a4c575080155b15610a6a5760405163f92ee8a960e01b815260040160405180910390fd5b845467ffffffffffffffff191660011785558315610a9457845460ff60401b1916600160401b1785555b610a9d8b6114d9565b610aa56114ea565b610aae8b6114f2565b600080546001600160a01b03199081166001600160a01b038d8116919091179092556001805482168c841617905560028054909116918a169190911790556004805463ffffffff191663ffffffff891617905560038690558315610b4c57845460ff60401b19168555604051600181527fc7f505b2f371ae2175ee4913f4499e1f2633a7b5936321eed1cdaeb6115181d29060200160405180910390a15b5050505050505050505050565b610b61611231565b63ffffffff85166000908152600b602052604090205460ff16610bbb5760405162461bcd60e51b8152602060048201526012602482015271556e616f74686f72697a65642073706f6b6560701b60448201526064016107c2565b610bc6838387611503565b5050505050565b610bd5611231565b60008054906101000a90046001600160a01b03166001600160a01b03166318160ddd6040518163ffffffff1660e01b8152600401602060405180830381865afa158015610c26573d6000803e3d6000fd5b505050506040513d601f19601f82011682018060405250810190610c4a9190612a7d565b15610c8d5760405162461bcd60e51b8152602060048201526013602482015272105b1c9958591e481a5b9a5d1a585b1a5e9959606a1b60448201526064016107c2565b600082118015610c9d5750600081115b610cd75760405162461bcd60e51b815260206004820152600b60248201526a04d757374206265203e20360ac1b60448201526064016107c2565b60038190556000546001546040516340c10f1960e01b81526001600160a01b03928316926340c10f1992610d12929116908690600401612a96565b600060405180830381600087803b158015610d2c57600080fd5b505af1158015610d40573d6000803e3d6000fd5b505050505050565b610d50611231565b6004805463ffffffff191663ffffffff92909216919091179055565b610d74611231565b6000546040516370a0823160e01b81523060048201526001600160a01b03909116906370a0823190602401602060405180830381865afa158015610dbc573d6000803e3d6000fd5b505050506040513d601f19601f82011682018060405250810190610de09190612a7d565b811115610e265760405162461bcd60e51b8152602060048201526014602482015273496e73756666696369656e742062616c616e636560601b60448201526064016107c2565b60005460405163a9059cbb60e01b81526001600160a01b039091169063a9059cbb90610e589085908590600401612a96565b6020604051808303816000875af1158015610e77573d6000803e3d6000fd5b505050506040513d601f19601f82011682018060405250810190610e9b9190612aaf565b505050565b610ea8611231565b60405163ca5eb5e160e01b81526001600160a01b0382811660048301527f0000000000000000000000000000000000000000000000000000000000000000169063ca5eb5e190602401600060405180830381600087803b158015610f0b57600080fd5b505af1158015610bc6573d6000803e3d6000fd5b610f27611231565b6001600160a01b03821615801590610f4757506001600160a01b03811615155b610f855760405162461bcd60e51b815260206004820152600f60248201526e496e76616c6964206164647265737360881b60448201526064016107c2565b600280546001600160a01b03199081166001600160a01b03858116918217909355600180549092169284169283179091556040517f316af92955f23ddbd4c570a5f8cda8a10b192f24d8f58524deb2fcb03a8bc79490600090a35050565b610feb611231565b6127108183610ffa8688612ae2565b6110049190612ae2565b61100e9190612ae2565b111561105c5760405162461bcd60e51b815260206004820152601c60248201527f546f74616c207461782063616e6e6f742065786365656420313030250000000060448201526064016107c2565b600593909355600691909155600755600855565b611078611231565b6127106110858284612ae2565b146110c45760405162461bcd60e51b815260206004820152600f60248201526e4d75737420657175616c203130302560881b60448201526064016107c2565b600991909155600a55565b6110d7611231565b6001600160a01b03811661110157604051631e4fbdf760e01b8152600060048201526024016107c2565b61110a8161143f565b50565b60006020820180359061112490610602908561258d565b1492915050565b63ffffffff811660009081527f72ab1bc1039b79dc4724ffca13de82c96834302d3c7e0d4252232d4b2dd8f90060208190526040822054806111885760405163f6ff4fb760e01b815263ffffffff851660048201526024016107c2565b9392505050565b600b60006111a060208a018a61258d565b63ffffffff16815260208101919091526040016000205460ff166111fb5760405162461bcd60e51b8152602060048201526012602482015271556e617574686f72697a65642073706f6b6560701b60448201526064016107c2565b60008061120a868801886129c6565b9092509050611226828261122160208d018d61258d565b611503565b505050505050505050565b336112637f9016d09d72d40fdae2fd8ceac6b6234c7706214fd39c1cd1e609a0528c199300546001600160a01b031690565b6001600160a01b0316146109085760405163118cdaa760e01b81523360048201526024016107c2565b306001600160a01b037f000000000000000000000000000000000000000000000000000000000000000016148061131357507f00000000000000000000000000000000000000000000000000000000000000006001600160a01b0316611307600080516020612c20833981519152546001600160a01b031690565b6001600160a01b031614155b156109085760405163703e46dd60e11b815260040160405180910390fd5b61110a611231565b816001600160a01b03166352d1902d6040518163ffffffff1660e01b8152600401602060405180830381865afa925050508015611393575060408051601f3d908101601f1916820190925261139091810190612a7d565b60015b6113bb57604051634c9c8ce360e01b81526001600160a01b03831660048201526024016107c2565b600080516020612c2083398151915281146113ec57604051632a87526960e21b8152600481018290526024016107c2565b610e9b8383611bec565b306001600160a01b037f000000000000000000000000000000000000000000000000000000000000000016146109085760405163703e46dd60e11b815260040160405180910390fd5b7f9016d09d72d40fdae2fd8ceac6b6234c7706214fd39c1cd1e609a0528c19930080546001600160a01b031981166001600160a01b03848116918217845560405192169182907f8be0079c531659141344cd1fd0a4f28419497f9722a3daafe3b4186f6b6457e090600090a3505050565b6000807ff0c57e16840df040f15088dc2f81fe391c3923bec73e23a9662efc9c229c6a006109d4565b6114e1611c42565b61110a81611c67565b610908611c42565b6114fa611c42565b61110a81611c6f565b81600360008282546115159190612ae2565b909155505060008054604080516318160ddd60e01b815290516001600160a01b03909216916318160ddd916004808201926020929091908290030181865afa158015611565573d6000803e3d6000fd5b505050506040513d601f19601f820116820180604052508101906115899190612a7d565b905060008360035461159b9190612af5565b6004549091506000906115b8908490849063ffffffff1688611c80565b90506000612710600554836115cd9190612b08565b6115d79190612b35565b90506000612710600854846115ec9190612b08565b6115f69190612b35565b905060006127106006548561160b9190612b08565b6116159190612b35565b905060006127106007548661162a9190612b08565b6116349190612b35565b9050600081836116448688612ae2565b61164e9190612ae2565b6116589190612ae2565b905060006116668288612af5565b905060006127106009548761167b9190612b08565b6116859190612b35565b905060006116938288612af5565b90508a156118a8578115611764576000546040516340c10f1960e01b81526001600160a01b03909116906340c10f19906116d39083908690600401612a96565b600060405180830381600087803b1580156116ed57600080fd5b505af1158015611701573d6000803e3d6000fd5b5050600054604051633243c79160e01b8152600481018690526001600160a01b039091169250633243c7919150602401600060405180830381600087803b15801561174b57600080fd5b505af115801561175f573d6000803e3d6000fd5b505050505b60008054906101000a90046001600160a01b03166001600160a01b03166340c10f198f856040518363ffffffff1660e01b81526004016117a5929190612a96565b600060405180830381600087803b1580156117bf57600080fd5b505af11580156117d3573d6000803e3d6000fd5b5050505060008111156118a3576000546040516340c10f1960e01b81526001600160a01b03909116906340c10f19906118129083908590600401612a96565b600060405180830381600087803b15801561182c57600080fd5b505af1158015611840573d6000803e3d6000fd5b5050600054604051633243c79160e01b8152600481018590526001600160a01b039091169250633243c7919150602401600060405180830381600087803b15801561188a57600080fd5b505af115801561189e573d6000803e3d6000fd5b505050505b6119e7565b60008054906101000a90046001600160a01b03166001600160a01b03166340c10f198f856040518363ffffffff1660e01b81526004016118e9929190612a96565b600060405180830381600087803b15801561190357600080fd5b505af1158015611917573d6000803e3d6000fd5b5050505060008711156119e7576000546040516340c10f1960e01b81526001600160a01b03909116906340c10f19906119569083908b90600401612a96565b600060405180830381600087803b15801561197057600080fd5b505af1158015611984573d6000803e3d6000fd5b5050600054604051633243c79160e01b8152600481018b90526001600160a01b039091169250633243c7919150602401600060405180830381600087803b1580156119ce57600080fd5b505af11580156119e2573d6000803e3d6000fd5b505050505b6002546001600160a01b031615611a61576000546002546040516340c10f1960e01b81526001600160a01b03928316926340c10f1992611a2e929116908c90600401612a96565b600060405180830381600087803b158015611a4857600080fd5b505af1158015611a5c573d6000803e3d6000fd5b505050505b6001546001600160a01b031615611adb576000546001546040516340c10f1960e01b81526001600160a01b03928316926340c10f1992611aa8929116908a90600401612a96565b600060405180830381600087803b158015611ac257600080fd5b505af1158015611ad6573d6000803e3d6000fd5b505050505b6000546040516340c10f1960e01b81526001600160a01b03909116906340c10f1990611b0f9061dead908990600401612a96565b600060405180830381600087803b158015611b2957600080fd5b505af1158015611b3d573d6000803e3d6000fd5b505050508b63ffffffff168e6001600160a01b03167fe849bcd9e030208e8bec78b374c27c0f92793350e881fc2dfcc744c64d65f5b28f86604051611b8c929190918252602082015260400190565b60405180910390a36040805189815260208101899052908101879052606081018690527fef5304428ca43d2bd052d4b63ac2b64d03f2657c1deb0203fa11dd3bbde55c6b9060800160405180910390a15050505050505050505050505050565b611bf582611da5565b6040516001600160a01b038316907fbc7cd75a20ee27fd9adebab32041f755214dbc6bffa90cc0225b39da2e5c2d3b90600090a2805115611c3a57610e9b8282611e0a565b6108d5611e80565b611c4a611e9f565b61090857604051631afcd79f60e31b815260040160405180910390fd5b6110d7611c42565b611c77611c42565b61110a81611eb9565b6000841580611c8d575083155b15611c995750806109e7565b6000611ca58386612ae2565b905084861580611cb3575085155b15611cc25783925050506109e7565b8463ffffffff16620f424003611cf05785611cdd8589612b08565b611ce79190612b35565b925050506109e7565b600086611cfd8682612ae2565b611d0f90670de0b6b3a7640000612b08565b611d199190612b35565b90506000620f4240611d3963ffffffff8916670de0b6b3a7640000612b08565b611d439190612b35565b90506000611d518383611ee8565b9050670de0b6b3a76400008111611d70576000955050505050506109e7565b670de0b6b3a7640000611d838183612af5565b611d8d908c612b08565b611d979190612b35565b9a9950505050505050505050565b806001600160a01b03163b600003611ddb57604051634c9c8ce360e01b81526001600160a01b03821660048201526024016107c2565b600080516020612c2083398151915280546001600160a01b0319166001600160a01b0392909216919091179055565b6060600080846001600160a01b031684604051611e279190612b49565b600060405180830381855af49150503d8060008114611e62576040519150601f19603f3d011682016040523d82523d6000602084013e611e67565b606091505b5091509150611e77858383611f76565b95945050505050565b34156109085760405163b398979f60e01b815260040160405180910390fd5b6000611ea96114b0565b54600160401b900460ff16919050565b611ec1611c42565b6001600160a01b038116610ea857604051632d618d8160e21b815260040160405180910390fd5b600081600003611f015750670de0b6b3a76400006109d4565b82600003611f11575060006109d4565b670de0b6b3a76400008303611f2f5750670de0b6b3a76400006109d4565b82826000611f3c83611fd2565b90506000670de0b6b3a7640000611f538484612b65565b611f5d9190612b95565b90506000611f6a82612371565b98975050505050505050565b606082611f8b57611f868261254c565b611188565b8151158015611fa257506001600160a01b0384163b155b15611fcb57604051639996b31560e01b81526001600160a01b03851660048201526024016107c2565b5092915050565b60008082136120135760405162461bcd60e51b815260206004820152600d60248201526c1253959053125117d253941555609a1b60448201526064016107c2565b600080612028670de0b6b3a764000085612b95565b9050801561212b576000600160801b821061205057608091821c9161204d9082612ae2565b90505b600160401b821061206e57604091821c9161206b9082612ae2565b90505b640100000000821061208d57602091821c9161208a9082612ae2565b90505b6201000082106120aa57601091821c916120a79082612ae2565b90505b61010082106120c657600891821c916120c39082612ae2565b90505b601082106120e157600491821c916120de9082612ae2565b90505b600482106120fc57600291821c916120f99082612ae2565b90505b600282106121125761210f600182612ae2565b90505b612124670de0b6b3a764000082612b65565b94901d9391505b60006714d1120d7b16000085126121785761214e67081e344b8e68a05584612bc3565b92506714d1120d7b16000061216b670de0b6b3a764000087612b65565b6121759190612b95565b94505b671158e460913d000085126121c357612199670477b7e58afabf2b84612bc3565b9250671158e460913d00006121b6670de0b6b3a764000087612b65565b6121c09190612b95565b94505b670f9ccd8a1c508000851261220e576121e467025bb1e3756d40b384612bc3565b9250670f9ccd8a1c508000612201670de0b6b3a764000087612b65565b61220b9190612b95565b94505b670ebec21ee1da400085126122595761222f670136bafd9fc5da5084612bc3565b9250670ebec21ee1da400061224c670de0b6b3a764000087612b65565b6122569190612b95565b94505b670e4fbc69449f200085126122a357612279669db837627a16be84612bc3565b9250670e4fbc69449f2000612296670de0b6b3a764000087612b65565b6122a09190612b95565b94505b670e18398e7601900085126122ed576122c3664f690e6601f65884612bc3565b9250670e18398e760190006122e0670de0b6b3a764000087612b65565b6122ea9190612b95565b94505b670dfc78210eb2c80085126123375761230d6627d821712c24cf84612bc3565b9250670dfc78210eb2c80061232a670de0b6b3a764000087612b65565b6123349190612b95565b94505b670de0b6b3a76400006714057b7ef767814f6123538288612beb565b61235d9190612b65565b6123679190612b95565b611e779084612bc3565b60008082121561238357506000919050565b816000612398670de0b6b3a764000083612b35565b905060006123ae670de0b6b3a764000084612c0b565b9050670de0b6b3a76400008080806123c68582612b08565b6123d09190612b35565b9150670de0b6b3a76400006123ed8367099e8db03256ce5d612b08565b6123f79190612b35565b6124019082612ae2565b9050670de0b6b3a76400006124168584612b08565b6124209190612b35565b9150670de0b6b3a764000061243d8367035574bc3cee1b28612b08565b6124479190612b35565b6124519082612ae2565b9050670de0b6b3a76400006124668584612b08565b6124709190612b35565b9150670de0b6b3a764000061248c8366c530b1588a974b612b08565b6124969190612b35565b6124a09082612ae2565b9050670de0b6b3a76400006124b58584612b08565b6124bf9190612b35565b9150670de0b6b3a76400006124db8366222ba330dd31bc612b08565b6124e59190612b35565b6124ef9082612ae2565b9050670de0b6b3a76400006125048584612b08565b61250e9190612b35565b9150670de0b6b3a764000061252a836604bcae17b0e49c612b08565b6125349190612b35565b61253e9082612ae2565b90941b979650505050505050565b80511561255b57805160208201fd5b60405163d6bda27560e01b815260040160405180910390fd5b803563ffffffff8116811461258857600080fd5b919050565b60006020828403121561259f57600080fd5b61118882612574565b6000606082840312156125ba57600080fd5b50919050565b60008083601f8401126125d257600080fd5b50813567ffffffffffffffff8111156125ea57600080fd5b60208301915083602082850101111561260257600080fd5b9250929050565b6001600160a01b038116811461110a57600080fd5b600080600080600080600060e0888a03121561263957600080fd5b61264389896125a8565b965060608801359550608088013567ffffffffffffffff8082111561266757600080fd5b6126738b838c016125c0565b909750955060a08a0135915061268882612609565b90935060c0890135908082111561269e57600080fd5b506126ab8a828b016125c0565b989b979a50959850939692959293505050565b600080604083850312156126d157600080fd5b6126da83612574565b946020939093013593505050565b634e487b7160e01b600052604160045260246000fd5b6000806040838503121561271157600080fd5b823561271c81612609565b9150602083013567ffffffffffffffff8082111561273957600080fd5b818501915085601f83011261274d57600080fd5b81358181111561275f5761275f6126e8565b604051601f8201601f19908116603f01168101908382118183101715612787576127876126e8565b816040528281528860208487010111156127a057600080fd5b8260208601602083013760006020848301015280955050505050509250929050565b801515811461110a57600080fd5b600080604083850312156127e357600080fd5b6127ec83612574565b915060208301356127fc816127c2565b809150509250929050565b60008060008060a0858703121561281d57600080fd5b61282786866125a8565b9350606085013567ffffffffffffffff81111561284357600080fd5b61284f878288016125c0565b909450925050608085013561286381612609565b939692955090935050565b60008060008060008060c0878903121561288757600080fd5b863561289281612609565b955060208701356128a281612609565b945060408701356128b281612609565b935060608701356128c281612609565b92506128d060808801612574565b915060a087013590509295509295509295565b60005b838110156128fe5781810151838201526020016128e6565b50506000910152565b60208152600082518060208401526129268160408501602087016128e3565b601f01601f19169190910160400192915050565b600080600080600060a0868803121561295257600080fd5b61295b86612574565b945060208601359350604086013561297281612609565b925060608601359150608086013567ffffffffffffffff8116811461299657600080fd5b809150509295509295909350565b600080604083850312156129b757600080fd5b50508035926020909101359150565b600080604083850312156129d957600080fd5b82356126da81612609565b6000602082840312156129f657600080fd5b813561118881612609565b60008060408385031215612a1457600080fd5b8235612a1f81612609565b915060208301356127fc81612609565b60008060008060808587031215612a4557600080fd5b5050823594602084013594506040840135936060013592509050565b600060608284031215612a7357600080fd5b61118883836125a8565b600060208284031215612a8f57600080fd5b5051919050565b6001600160a01b03929092168252602082015260400190565b600060208284031215612ac157600080fd5b8151611188816127c2565b634e487b7160e01b600052601160045260246000fd5b808201808211156109d4576109d4612acc565b818103818111156109d4576109d4612acc565b80820281158282048414176109d4576109d4612acc565b634e487b7160e01b600052601260045260246000fd5b600082612b4457612b44612b1f565b500490565b60008251612b5b8184602087016128e3565b9190910192915050565b80820260008212600160ff1b84141615612b8157612b81612acc565b81810583148215176109d4576109d4612acc565b600082612ba457612ba4612b1f565b600160ff1b821460001984141615612bbe57612bbe612acc565b500590565b8082018281126000831280158216821582161715612be357612be3612acc565b505092915050565b8181036000831280158383131683831282161715611fcb57611fcb612acc565b600082612c1a57612c1a612b1f565b50069056fe360894a13ba1a3210667c828492db98dca3e2076cc3735a920a3ca505d382bbca26469706673582212202b3ed348773988eecb0975574cf7dbcc0ba3e847032e01a1c2e46b2f11865db864736f6c63430008160033",
  "linkReferences": {},
  "deployedLinkReferences": {}
}