{
  "_format": "hh-sol-artifact-1",
  "contractName": "MockAggregator",
  "sourceName": "contracts/mocks/MockAggregator.sol",
  "abi": [
    {
      "inputs": [
        {
          "internalType": "address",
          "name": "_usdc",
          "type": "address"
        }
      ],
      "stateMutability": "nonpayable",
      "type": "constructor"
    },
    {
      "inputs": [
        {
          "internalType": "address",
          "name": "executor",
          "type": "address"
        },
        {
          "components": [
            {
              "internalType": "address",
              "name": "srcToken",
              "type": "address"
            },
            {
              "internalType": "address",
              "name": "dstToken",
              "type": "address"
            },
            {
              "internalType": "address",
              "name": "srcReceiver",
              "type": "address"
            },
            {
              "internalType": "address",
              "name": "dstReceiver",
              "type": "address"
            },
            {
              "internalType": "uint256",
              "name": "amount",
              "type": "uint256"
            },
            {
              "internalType": "uint256",
              "name": "minReturnAmount",
              "type": "uint256"
            },
            {
              "internalType": "uint256",
              "name": "flags",
              "type": "uint256"
            }
          ],
          "internalType": "struct MockAggregator.SwapDescription",
          "name": "desc",
          "type": "tuple"
        },
        {
          "internalType": "bytes",
          "name": "permit",
          "type": "bytes"
        },
        {
          "internalType": "bytes",
          "name": "data",
          "type": "bytes"
        }
      ],
      "name": "swap",
      "outputs": [
        {
          "internalType": "uint256",
          "name": "returnAmount",
          "type": "uint256"
        },
        {
          "internalType": "uint256",
          "name": "spentAmount",
          "type": "uint256"
        }
      ],
      "stateMutability": "payable",
      "type": "function"
    },
    {
      "inputs": [],
      "name": "usdc",
      "outputs": [
        {
          "internalType": "address",
          "name": "",
          "type": "address"
        }
      ],
      "stateMutability": "view",
      "type": "function"
    }
  ],
  "bytecode": "0x60a060405234801561001057600080fd5b506040516103f03803806103f083398101604081905261002f91610040565b6001600160a01b0316608052610070565b60006020828403121561005257600080fd5b81516001600160a01b038116811461006957600080fd5b9392505050565b60805161036661008a6000396000606d01526103666000f3fe6080604052600436106100295760003560e01c806312aa3caf1461002e5780633e413bee1461005b575b600080fd5b61004161003c36600461024c565b6100a7565b604080519283526020830191909152015b60405180910390f35b34801561006757600080fd5b5061008f7f000000000000000000000000000000000000000000000000000000000000000081565b6040516001600160a01b039091168152602001610052565b6000806100b760208801886102ec565b6040516323b872dd60e01b8152336004820152306024820152608089013560448201526001600160a01b0391909116906323b872dd906064016020604051808303816000875af115801561010f573d6000803e3d6000fd5b505050506040513d601f19601f82011682018060405250810190610133919061030e565b50505060808501358061014c60408801602089016102ec565b6001600160a01b031663a9059cbb61016a60808a0160608b016102ec565b6040516001600160e01b031960e084901b1681526001600160a01b039091166004820152602481018590526044016020604051808303816000875af11580156101b7573d6000803e3d6000fd5b505050506040513d601f19601f820116820180604052508101906101db919061030e565b50965096945050505050565b80356001600160a01b03811681146101fe57600080fd5b919050565b60008083601f84011261021557600080fd5b50813567ffffffffffffffff81111561022d57600080fd5b60208301915083602082850101111561024557600080fd5b9250929050565b60008060008060008086880361014081121561026757600080fd5b610270886101e7565b965060e0601f198201121561028457600080fd5b5060208701945061010087013567ffffffffffffffff808211156102a757600080fd5b6102b38a838b01610203565b90965094506101208901359150808211156102cd57600080fd5b506102da89828a01610203565b979a9699509497509295939492505050565b6000602082840312156102fe57600080fd5b610307826101e7565b9392505050565b60006020828403121561032057600080fd5b8151801515811461030757600080fdfea26469706673582212207a7a57036705dd39f118b4c32ccc4f69e917b4a2b264de44f83178520024892964736f6c63430008160033",
  "linkReferences": {},
  "deployedLinkReferences": {}
}