{
  "_format": "hh-sol-artifact-1",
  "contractName": "MockDEXRouter",
  "sourceName": "contracts/mocks/MockDEXRouter.sol",
  "abi": [
    {
      "inputs": [
        {
          "internalType": "address",
          "name": "_usdc",
          "type": "address"
        }
      ],
      "stateMutability": "nonpayable",
      "type": "constructor"
    },
    {
      "anonymous": false,
      "inputs": [
        {
          "indexed": true,
          "internalType": "address",
          "name": "srcToken",
          "type": "address"
        },
        {
          "indexed": true,
          "internalType": "address",
          "name": "dstToken",
          "type": "address"
        },
        {
          "indexed": false,
          "internalType": "uint256",
          "name": "srcAmount",
          "type": "uint256"
        },
        {
          "indexed": false,
          "internalType": "uint256",
          "name": "dstAmount",
          "type": "uint256"
        }
      ],
      "name": "MockSwapExecuted",
      "type": "event"
    },
    {
      "stateMutability": "nonpayable",
      "type": "fallback"
    },
    {
      "inputs": [
        {
          "internalType": "address",
          "name": "_srcToken",
          "type": "address"
        },
        {
          "internalType": "uint256",
          "name": "_amount",
          "type": "uint256"
        }
      ],
      "name": "encodeSwapData",
      "outputs": [
        {
          "internalType": "bytes",
          "name": "",
          "type": "bytes"
        }
      ],
      "stateMutability": "pure",
      "type": "function"
    },
    {
      "inputs": [],
      "name": "exchangeRateBps",
      "outputs": [
        {
          "internalType": "uint256",
          "name": "",
          "type": "uint256"
        }
      ],
      "stateMutability": "view",
      "type": "function"
    },
    {
      "inputs": [
        {
          "internalType": "uint256",
          "name": "_rateBps",
          "type": "uint256"
        }
      ],
      "name": "setExchangeRate",
      "outputs": [],
      "stateMutability": "nonpayable",
      "type": "function"
    },
    {
      "inputs": [
        {
          "internalType": "address",
          "name": "_srcToken",
          "type": "address"
        },
        {
          "internalType": "uint256",
          "name": "_amount",
          "type": "uint256"
        }
      ],
      "name": "swap",
      "outputs": [
        {
          "internalType": "uint256",
          "name": "usdcOut",
          "type": "uint256"
        }
      ],
      "stateMutability": "nonpayable",
      "type": "function"
    },
    {
      "inputs": [],
      "name": "usdc",
      "outputs": [
        {
          "internalType": "address",
          "name": "",
          "type": "address"
        }
      ],
      "stateMutability": "view",
      "type": "function"
    },
    {
      "stateMutability": "payable",
      "type": "receive"
    }
  ],
  "bytecode": "0x608060405261271060015534801561001657600080fd5b506040516107173803806107178339810160408190526100359161005a565b600080546001600160a01b0319166001600160a01b039290921691909117905561008a565b60006020828403121561006c57600080fd5b81516001600160a01b038116811461008357600080fd5b9392505050565b61067e806100996000396000f3fe60806040526004361061004e5760003560e01c80631d808d1f146102845780633a6ba242146102ba5780633e413bee146102de578063d004f0f714610316578063db068e0e1461033657610055565b3661005557005b34801561006157600080fd5b50600035632ffb0f0960e01b6001600160e01b03198216016102475760008061008d3660048184610502565b81019061009a9190610544565b6040516323b872dd60e01b81523360048201523060248201526044810182905291935091506001600160a01b038316906323b872dd906064016020604051808303816000875af11580156100f2573d6000803e3d6000fd5b505050506040513d601f19601f820116820180604052508101906101169190610570565b5060006127106001548361012a9190610599565b61013491906105be565b6000805460405163a9059cbb60e01b81523360048201526024810184905292935090916001600160a01b039091169063a9059cbb906044016020604051808303816000875af115801561018b573d6000803e3d6000fd5b505050506040513d601f19601f820116820180604052508101906101af9190610570565b9050806101fa5760405162461bcd60e51b81526020600482015260146024820152731554d110c81d1c985b9cd9995c8819985a5b195960621b60448201526064015b60405180910390fd5b60005460408051858152602081018590526001600160a01b03928316928716917fc3cb4543ffb64126cece719448bbf2e3b67d4af3bce0d8cb57713d0aba3a8852910160405180910390a3005b60405162461bcd60e51b815260206004820152601060248201526f2ab735b737bbb710333ab731ba34b7b760811b60448201526064016101f1565b005b34801561029057600080fd5b506102a461029f366004610544565b610356565b6040516102b191906105e0565b60405180910390f35b3480156102c657600080fd5b506102d060015481565b6040519081526020016102b1565b3480156102ea57600080fd5b506000546102fe906001600160a01b031681565b6040516001600160a01b0390911681526020016102b1565b34801561032257600080fd5b506102d0610331366004610544565b6103a4565b34801561034257600080fd5b5061028261035136600461062f565b600155565b604080516001600160a01b038416602482015260448082018490528251808303909101815260649091019091526020810180516001600160e01b031663d004f0f760e01b1790525b92915050565b6040516323b872dd60e01b8152336004820152306024820152604481018290526000906001600160a01b038416906323b872dd906064016020604051808303816000875af11580156103fa573d6000803e3d6000fd5b505050506040513d601f19601f8201168201806040525081019061041e9190610570565b50612710600154836104309190610599565b61043a91906105be565b60005460405163a9059cbb60e01b8152336004820152602481018390529192506001600160a01b03169063a9059cbb906044016020604051808303816000875af115801561048c573d6000803e3d6000fd5b505050506040513d601f19601f820116820180604052508101906104b09190610570565b5060005460408051848152602081018490526001600160a01b03928316928616917fc3cb4543ffb64126cece719448bbf2e3b67d4af3bce0d8cb57713d0aba3a8852910160405180910390a392915050565b6000808585111561051257600080fd5b8386111561051f57600080fd5b5050820193919092039150565b6001600160a01b038116811461054157600080fd5b50565b6000806040838503121561055757600080fd5b82356105628161052c565b946020939093013593505050565b60006020828403121561058257600080fd5b8151801515811461059257600080fd5b9392505050565b808202811582820484141761039e57634e487b7160e01b600052601160045260246000fd5b6000826105db57634e487b7160e01b600052601260045260246000fd5b500490565b60006020808352835180602085015260005b8181101561060e578581018301518582016040015282016105f2565b506000604082860101526040601f19601f8301168501019250505092915050565b60006020828403121561064157600080fd5b503591905056fea26469706673582212207a0117cc97a7cc1147f839ed7d0cfad4635ca2c8effbf382f13c8aba60c264c664736f6c63430008160033",
  "linkReferences": {},
  "deployedLinkReferences": {}
}