{
  "_format": "hh-sol-artifact-1",
  "contractName": "MockEndpointV2",
  "sourceName": "contracts/mocks/MockEndpointV2.sol",
  "abi": [
    {
      "inputs": [
        {
          "internalType": "address",
          "name": "",
          "type": "address"
        }
      ],
      "name": "delegates",
      "outputs": [
        {
          "internalType": "address",
          "name": "",
          "type": "address"
        }
      ],
      "stateMutability": "view",
      "type": "function"
    },
    {
      "inputs": [
        {
          "internalType": "uint32",
          "name": "",
          "type": "uint32"
        },
        {
          "internalType": "bytes",
          "name": "",
          "type": "bytes"
        },
        {
          "internalType": "bytes",
          "name": "",
          "type": "bytes"
        },
        {
          "internalType": "bool",
          "name": "",
          "type": "bool"
        }
      ],
      "name": "quote",
      "outputs": [
        {
          "internalType": "uint256",
          "name": "nativeFee",
          "type": "uint256"
        },
        {
          "internalType": "uint256",
          "name": "lzTokenFee",
          "type": "uint256"
        }
      ],
      "stateMutability": "pure",
      "type": "function"
    },
    {
      "inputs": [
        {
          "internalType": "uint32",
          "name": "",
          "type": "uint32"
        },
        {
          "internalType": "bytes",
          "name": "",
          "type": "bytes"
        },
        {
          "internalType": "bytes",
          "name": "",
          "type": "bytes"
        },
        {
          "internalType": "address payable",
          "name": "",
          "type": "address"
        },
        {
          "internalType": "bytes",
          "name": "",
          "type": "bytes"
        }
      ],
      "name": "send",
      "outputs": [
        {
          "internalType": "bytes32",
          "name": "guid",
          "type": "bytes32"
        }
      ],
      "stateMutability": "payable",
      "type": "function"
    },
    {
      "inputs": [
        {
          "internalType": "address",
          "name": "_delegate",
          "type": "address"
        }
      ],
      "name": "setDelegate",
      "outputs": [],
      "stateMutability": "nonpayable",
      "type": "function"
    }
  ],
  "bytecode": "0x608060405234801561001057600080fd5b50610376806100206000396000f3fe60806040526004361061003f5760003560e01c80633cc10c2814610044578063587cde1e14610073578063ca5eb5e1146100c1578063eba007071461010d575b600080fd5b6100606100523660046101c5565b600098975050505050505050565b6040519081526020015b60405180910390f35b34801561007f57600080fd5b506100a961008e366004610284565b6000602081905290815260409020546001600160a01b031681565b6040516001600160a01b03909116815260200161006a565b3480156100cd57600080fd5b5061010b6100dc366004610284565b33600090815260208190526040902080546001600160a01b0319166001600160a01b0392909216919091179055565b005b34801561011957600080fd5b506101366101283660046102a8565b600080965096945050505050565b6040805192835260208301919091520161006a565b803563ffffffff8116811461015f57600080fd5b919050565b60008083601f84011261017657600080fd5b50813567ffffffffffffffff81111561018e57600080fd5b6020830191508360208285010111156101a657600080fd5b9250929050565b6001600160a01b03811681146101c257600080fd5b50565b60008060008060008060008060a0898b0312156101e157600080fd5b6101ea8961014b565b9750602089013567ffffffffffffffff8082111561020757600080fd5b6102138c838d01610164565b909950975060408b013591508082111561022c57600080fd5b6102388c838d01610164565b909750955060608b0135915061024d826101ad565b90935060808a0135908082111561026357600080fd5b506102708b828c01610164565b999c989b5096995094979396929594505050565b60006020828403121561029657600080fd5b81356102a1816101ad565b9392505050565b600080600080600080608087890312156102c157600080fd5b6102ca8761014b565b9550602087013567ffffffffffffffff808211156102e757600080fd5b6102f38a838b01610164565b9097509550604089013591508082111561030c57600080fd5b5061031989828a01610164565b9094509250506060870135801515811461033257600080fd5b80915050929550929550929556fea26469706673582212202bd402113dea8aefe3f48b6141ec556757caa217a3f132e09fa5f689bf289a8164736f6c63430008160033",
  "linkReferences": {},
  "deployedLinkReferences": {}
}